:020000040800F2
:1000000098070020C90100083D19000835190008AB
:10001000391900085D080008C12800080000000028
:10002000000000000000000000000000B5280008EB
:10003000610800080000000041190008B928000804
:10004000E3010008E3010008E3010008E301000800
:10005000E3010008E3010008E3010008E3010008F0
:10006000E3010008E3010008E3010008E3010008E0
:10007000E3010008E3010008E3010008E3010008D0
:10008000E3010008E3010008E3010008E3010008C0
:10009000E3010008E3010008E3010008E3010008B0
:1000A000E3010008E3010008E3010008E3010008A0
:1000B000E3010008E3010008E3010008E301000890
:1000C000E3010008E3010008E3010008E301000880
:1000D000E3010008E3010008E3010008E301000870
:1000E000E3010008E3010008E301000800F002F862
:1000F00000F05BF814A696E8000CB244B344DA456D
:1001000001D100F052F8BAE80F000FA696E83000CF
:10011000A5EB040504EB0607AAEB0704A7F101070A
:100120004FEA15154FEA3414A4F10104AC4201D38F
:1001300000F03BF813F0010F18BFFB1A43F0010366
:1001400000F001F8DBE71847EC3900000C3A00003A
:10015000103A24BF78C878C1FAD8520724BF30C8F3
:1001600030C144BF04680C60704700007047000055
:100170000023002400250026103A28BF78C1FBD8B0
:10018000520728BF30C148BF0B607047752900F087
:10019000AB80782900F0E480732900F0EF82002022
:1001A00070471FB51FBD10B510BD00F01DFB1146F7
:1001B000FFF7F7FF02F032FF00F03BFB03B4FFF75D
:1001C000F2FF03BC00F042FB0948804709480047A2
:1001D000FEE7FEE7FEE7FEE7FEE7FEE7FEE7FEE7F7
:1001E000FEE7FEE704480549054A064B7047000054
:1001F000BD280008ED0000089801002098070020A5
:1002000098030020980300200FB41CB50C0007AA27
:10021000009007D04142A14202D32044401E01E099
:100220004FF0FF30074B7B4469460190069800F081
:1002300078FA0021002C01D0009A11701CBC5DF8E6
:1002400014FB00001F05000070B5044685690068B6
:10025000C10601D5302600E02026C00707D070BDBA
:10026000D4E9012130469047206A401C20626D1E6F
:10027000F6D570BD70B5044685690078C00707D112
:1002800070BDD4E9012120209047206A401C2062E3
:100290006D1EF6D570BD70B50C460546012A05D019
:1002A0002878800600D5EA69002302E0012305E0F2
:1002B0005B1C934202D2E05C0028F9D1A869E618E1
:1002C000C01AA861286A184428622846FFF7BCFFB4
:1002D00004E0D5E9012114F8010B9047B442F8D3AA
:1002E0002846FFF7C7FF70BD2DE9F0410646002400
:1002F00010687529314616A510D0AFF3008000288C
:1003000002DA404213A507E031688A0701D512A539
:1003100002E0490704D511A5012401E0AFF30080F4
:1003200000210A2206F1240709E0B0FBF2FCB0FB31
:10033000F2F302FB1C00303078541846491C0028A8
:10034000F3D123462A463046BDE8F04100F08AB991
:10035000000000002D0000002B0000002000000025
:1003600070B504460D4621461068AFF30080218821
:10037000090502D50F4A7A4402E00E4A7A440E3249
:10038000002104F1240305E000F00F060009965D4A
:100390005E54491C0028F7D120780023000704D5BB
:1003A000702D02D009B1022311322046BDE8704001
:1003B00000F058B9E63500002DE9F05F89460446A3
:1003C0004FF0000ADFF824B1FB44C0F820A020461B
:1003D000E168884700287DD0252806D0D4E901218E
:1003E0009047206A401C2062F1E700255F462046C6
:1003F000E16888472028064607DB312E05D2B81968
:1004000010F8200C08B10543F1E7A80701D525F045
:100410000405C4F81CA00027C4F818A02A2E09D08F
:10042000304603F096FA38B304EB8708303EC8F83C
:10043000186019E059F8041B204604EB870291610B
:10044000E1688847012F064618D1E069002820DAC4
:1004500025F020051DE0D8F8180000EB800006EB21
:1004600040003038C8F818002046E1688847064642
:1004700003F06FFA0028EED1012F0AD02E2E08D1FA
:100480002046E16888477F1C0646022F45F020057C
:10049000C4DBA069002803DA404245F00105A061F1
:1004A000E80701D025F01005A6B1A6F141001928F2
:1004B00002D8203645F400654A463146204625607C
:1004C0004D46FFF763FE60B1012807D0ED1D25F012
:1004D000070000E007E000F1080978E705F10409EA
:1004E00075E730467AE7206ABDE8F09FBC3500002A
:1004F00040EA010310B59B070FD1042A0DD310C8A1
:1005000008C9121F9C42F8D020BA19BA884201D9F2
:10051000012010BD4FF0FF3010BD1AB1D30703D03A
:10052000521C07E0002010BD10F8013B11F8014BF0
:100530001B1B07D110F8013B11F8014B1B1B01D10C
:10054000921EF1D1184610BD10B5431C02E010F800
:10055000011B71B18107FAD14FF0013202C88C1A28
:100560008C4314EAC211F9D0C01A0A0603D0C01E87
:1005700010BDC01A10BD0A0401D0801E10BD0902B2
:10058000FCD0401E10BD032A40F2308010F0030C56
:1005900000F0158011F8013BBCF1020F624498BFD6
:1005A00011F801CB00F8013B38BF11F8013BA2F173
:1005B000040298BF00F801CB38BF00F8013B11F0EE
:1005C000030300F0DF80083AC0F0088051F8043BD4
:1005D000083A51F804CBA0E80810F5E7121D5CBFFB
:1005E00051F8043B40F8043BAFF30080D20724BF2E
:1005F00011F8013B11F801CB48BF11F8012B24BFC2
:1006000000F8013B00F801CB48BF00F8012B704710
:100610004FF0000200B5134694469646203922BF9B
:10062000A0E80C50A0E80C50B1F12001BFF4F7AFE6
:10063000090728BFA0E80C5048BF0CC05DF804EBC8
:10064000890028BF40F8042B08BF704748BF20F836
:10065000022B11F0804F18BF00F8012B7047704734
:10066000704770472DE9F0470D469946924604467B
:1006700000F124080168880604D5E06921F0100122
:10068000216000E00120A84201DD471B00E00027B7
:10069000A1697A1902EB0900081AA0612078C00646
:1006A00002D42046FFF7D0FD002608E0D4E901215E
:1006B0001AF806009047206A401C761C20624E45BE
:1006C000F4DB2078C0060AD52046FFF7BDFD06E022
:1006D000D4E9012130209047206A401C2062381E56
:1006E000A7F10107F4DC07E0D4E9012118F80500BF
:1006F0009047206A401C2062281EA5F10105F3DC0A
:100700002046FFF7B7FD2078000602D50220BDE89D
:10071000F0870120FBE7000001694A1C02610878AC
:10072000704700B58FB0CDE9013100210591054931
:100730007944CDE9031011466846FFF73DFE0FB03E
:1007400000BD0000E5FFFFFFD1E900239A4202D27D
:10075000531C0B601070704710B5436913B1AFF3B1
:10076000008001E0FFF797FD012010BD127800F135
:1007700024010A7000224A700122EDE711684FF04F
:10078000FF32E9E710B5203AC0F00B80B1E818500D
:10079000A0E81850B1E81850A0E81850203ABFF46B
:1007A000F5AF5FEA027C24BFB1E81850A0E818500A
:1007B00044BF18C918C0BDE810405FEA827C24BF5E
:1007C00051F8043B40F8043B08BF7047D20728BFEC
:1007D00031F8023B48BF11F8012B28BF20F8023B3B
:1007E00048BF00F8012B7047754600F02BF8AE4665
:1007F00005006946534620F00700854618B020B52D
:10080000FFF7F0FCBDE820404FF000064FF0000776
:100810004FF000084FF0000BAC46ACE8C009ACE864
:10082000C009ACE8C009ACE8C00921F007018D4659
:10083000704710B50446AFF300802046BDE8104075
:10084000FFF7BCBC00487047100000200149182089
:10085000ABBEFEE72600020070470000FEE7000086
:1008600070470000B0B5044600F026F9054640F296
:100870000400C2F200000078611C18BF044400BFED
:1008800000F01AF9401BA042FAD3B0BD2DE9F04F99
:1008900082B00E68002E00F0FD8041F20042C4F2EA
:1008A0000102042340F2004E904208BF03234FF69A
:1008B000FF7CC4F2010E009300240123C1F2100C4E
:1008C0004FF0000A4FF000094BE000BF41F2000278
:1008D000C4F20102009F904208BF022704F00C03FB
:1008E0000F229A402BEA020207FA03F34FEA9A0515
:1008F0001A4346F825204E6840F20C45F202DEF815
:10090000082054BF22EA080242EA0802C4F20105A4
:10091000CEF808202A68B30254BF22EA080242EA4D
:1009200008022A60B303DEF8042054BF22EA08025A
:1009300042EA0802F303CEF80420DEF800204FF06C
:10094000010354BF22EA080242EA0802CEF800205E
:100950000E680AF1010A36FA0AF204F1040400F002
:10096000998003FA0AFB16EA0B08F1D04E68664537
:1009700012DC122E56D8DFE806F0350B4D495555DE
:10098000555555555555555555555545510000BF6B
:10099000D1F80C9046E000BF4FF6FF72C1F2210281
:1009A00096420FDC0022C1F2110296421AD00022B8
:1009B000C1F21202964215D00022C1F221029642E3
:1009C00010D02FE00022C1F2220296420AD000226B
:1009D000C1F23102964205D00022C1F232029642A3
:1009E00020D100BF8A684AB1012A14BFC0F814B0F0
:1009F000C0F810B04FF0080914E000BF4FF0040930
:100A000010E000BFCA6802F104090BE04FF00009D2
:100A100008E000BFCA6802F1080903E0CA6802F1F1
:100A20000C0900BF02462646B8F5807F24BF043279
:100A3000203E17680F25B54027EA050509FA06F696
:100A400035431560CA79D2067FF582AF41F21803AB
:100A5000C4F202031A68AEF57E7642F001021A6013
:100A60001A6802F001020192019A2AF0030256F874
:100A700002B040F60002C4F20102904208D040F6F3
:100A80000042C4F2010290427FF420AF012725E723
:100A9000002723E702B0BDE8F08F0000C26802EA39
:100AA0000103914341EA034101617047002A08BFF5
:100AB000090401617047000040F29010C2F200008A
:100AC0000068704740F2040040F29011C2F200004A
:100AD000C2F2000100780A68104408607047000004
:100AE00080B542F20000C4F20200016841F010013A
:100AF0000160032000F07AF80F2000F005F800F004
:100B000027F8002080BD000070B540F20406C2F254
:100B1000000640F20C013278C2F200014FF47A7301
:100B20000968B3FBF2F20446B1FBF2F1084600F0AB
:100B30006FFD0F2C4FF0010508D838B94FF0FF308A
:100B400021460022002500F025F87460284670BD7B
:100B500082B041F21800C4F202000168022241F0A2
:100B600001010160016801F00101019101994168F1
:100B700041F080514160406800F080500090009842
:100B80000420C4F20100016862F31A61016002B03E
:100B90007047000010B54EF60C5CCEF2000CDCF88D
:100BA0000030C3F3022E8EF00704042C28BF042467
:100BB000BEF103034FF0FF3E0EFA04F438BF0023EA
:100BC000A14399400EFA03F39A43114300F00F0238
:100BD00000F160430901043A03F5644362440028CC
:100BE00048BF02F10C03197010BD00004EF60C5105
:100BF000CEF200010A684FF6FF031A4060F30A22A2
:100C000042F0806040F0FD7008607047002804BF2B
:100C1000012070472DE9F04381B042F20008C4F290
:100C200002080446D8F800000D4600F0070088428C
:100C30000CD2D8F8000020F007002843C8F80000C4
:100C4000D8F8000000F00700A8426CD1206841F2FB
:100C500004098107C4F2020917D5410705D5D9F85F
:100C6000001041F4E061C9F80010010705D5D9F87A
:100C7000001041F46051C9F80010D9F80010A268C2
:100C800021F0F0011143C9F80010C00742D1D8F893
:100C9000000000F00700A8420CD9D8F8000020F0AE
:100CA00007002843C8F80000D8F8000000F007004B
:100CB000A84238D12068410707D5D9F80010E2686A
:100CC00021F4E0611143C9F80010000708D5D9F8F4
:100CD0000000216920F4605040EAC100C9F800001A
:100CE000D9F8002002F00C00082841F20020C0F2E0
:100CF0007A004DD143F60A23C2F38341C0F60003C4
:100D0000595CD20338D440F60010C0F23D0048438D
:100D10003EE000BF606859F8041C022808D0012892
:100D200026D1890306D4012001B0BDE8F08300BFBD
:100D30008901F8D5D9F8001021F003010843C9F85A
:100D40000000FFF7B9FE064641F28837D9F80000E7
:100D5000616800F00C00B0EB810F98D0FFF7ACFE9B
:100D6000801BB842F2D9032001B0BDE8F08300BF78
:100D70008907D8D5DEE700BFD9F8002043F608235D
:100D8000C2F34042C0F600039A5C4843B0FBF2F065
:100D9000D9F8001043F6F012C1F30311C0F60002B7
:100DA000515C40F20C0220FA01F140F20800C2F25C
:100DB00000000068C2F200021160FFF7A5FE0020EB
:100DC00001B0BDE8F083000040F20C0041F20401E4
:100DD000C2F20000C4F202010068096843F6002272
:100DE000C1F30221C0F60002515CC8407047000008
:100DF00040F20C0041F20401C2F20000C4F2020110
:100E00000068096843F60022C1F3C221C0F600025F
:100E1000515CC84070470000002804BF01207047A3
:100E20002DE9F04182B00446007841F20006C00787
:100E3000C4F202060CD0706800F00C00042840F0E8
:100E400081803068800303D56068002800F0468107
:100E5000207880071BD5706810F00C0F09D07068DF
:100E600000F00C00082840F087807068C00300F193
:100E700083803068800703D52069012840F02E81E7
:100E80003068616920F0F80040EAC10030602078E5
:100E9000000713D4207840072CD4E569002D00F01A
:100EA0001881706800F00C00082840F0A780012D20
:100EB00040F00481012002B0BDE8F081A069002863
:100EC00000F084800020C4F242200121C0F8801488
:100ED000FFF7F2FD054600BF706A800700F1B2809F
:100EE000FFF7EAFD401B0228F6D9032002B0BDE857
:100EF000F08100BFF0695FEAC00808D4F06940F0F3
:100F00008050F061F06900F080500090009847F246
:100F10000007C4F200073868C00549D4386840F4B7
:100F200080703860FFF7C8FD054600BF3868C0050F
:100F30003ED4FFF7C1FD401B6428F7D9032002B05F
:100F4000BDE8F081706800F00C00082803D17068DB
:100F5000C0033FF576AF61683068002900F00C816E
:100F6000B1F5A02F00F00081B1F5803F40F01A816B
:100F700040F480301CE100BF2069002840F20000EE
:100F8000C4F2422000F0888001210160FFF794FD47
:100F9000054600BF306880073FF572AFFFF78CFD54
:100FA000401B0228F6D9032002B0BDE8F08100BF43
:100FB000E168306A002900F09D80052900F09280E8
:100FC000012940F0AF8040F00100B1E00020C4F200
:100FD00042200021C0F88014FFF76EFD054600BFD7
:100FE000706A80077FF556AFFFF766FD401B022849
:100FF000F6D9032002B0BDE8F08100BF0027C4F29B
:10100000422700203866FFF757FD022D05460DD117
:101010003068800140F1DE80FFF74EFD401B022862
:101020004FF00300F4D902B0BDE8F08130688001D0
:101030004FD5FFF741FD401B02284FF00300F5D9C3
:10104000F1E700BF40F20C00C2F20000006844F675
:10105000D351C1F26201A0FB0101480A019000BF17
:1010600000BF0198411E002801913FF413AF00BF5B
:101070000198411E002801913FF40CAF00BF019878
:10108000411E002801913FF405AF00BF0198411EA9
:1010900000280191E4D1FDE600210160FFF70CFD7D
:1010A000054600BF306880077FF5F1AEFFF704FD0D
:1010B000401B02284FF00300F4D9B4E77068216A9E
:1010C00000F480328A4209D1616A00F470108842CB
:1010D00004D1002002B0BDE8F08100BF012002B0C1
:1010E000BDE8F08140F004003062306A40F0010059
:1010F0001EE000BF20F001003062306A20F00400E2
:101100003062FFF7D9FC054641F28837306A800724
:1011100020D5FFF7D1FC401BB8424FF00300F5D9B2
:1011200081E700BF20F001003062306A20F0040047
:101130003062FFF7C1FC054641F28837306A80070C
:1011400008D4FFF7B9FC401BB842F7D9032002B01E
:10115000BDE8F081B8F1000F3FF59FAEF06920F0D7
:101160008050F06199E600BF40F480203060306824
:1011700040F480301CE000BF20F4803030603068E4
:1011800020F480203060FFF797FC0546306880032C
:101190007FF55EAEFFF790FC401B64284FF0030024
:1011A000F4D940E720F480303060306820F48020AB
:1011B0003060FFF781FC0546306880033FF548AE9C
:1011C000FFF77AFC401B6428F6D9032002B0BDE883
:1011D000F08100BF206AB0F5803F05D17168A26838
:1011E00021F40031114371607168626A21F4741155
:1011F00011430843706001203866FFF75DFC044628
:10120000306880013FF565AFFFF756FC001B0228F0
:101210004FF00300F4D906E770B528B1416A29B14F
:1012200000210161142106E0012070BD4168B1F583
:10123000827F02D01C21002242500026866290F854
:10124000511029B980F85060054600F039F8284659
:10125000022180F8511090E82E0002F482720C688E
:1012600003F4044324F040040C601A4405F40063C2
:1012700005691A4405F0020345691A4405F00103A3
:101280008569C4691A4405F400731A4404F03803EC
:10129000046A1A4404F08003846A1A4304F4005375
:1012A0001A430A60042202EA15424A60CA6922F41B
:1012B0000062CA610121466580F85110304670BD58
:1012C00070B586B040F60004C4F20104006804F56D
:1012D0002051002688420596CDE90366029601D08A
:1012E00006B070BD41F21800C4F20200016802AD00
:1012F00041F480510160016801F48051019101992C
:10130000016841F0040101600068294600F0040012
:1013100001900198A02002900220039003200590E4
:101320002046FFF7B3FA4020CDE9020620462946C1
:101330000496FFF7ABFA06B070BD00002DE9F0434C
:1013400083B01E4615460F460446FFF7B5FB94F8DA
:1013500051108146012909D1002F4FF0010018BF1B
:10136000002D0FD103B0BDE8F08300BF6068B0F579
:10137000827F0DD104294FF00200F3D1A16800292A
:10138000EAD0EFE7002EEDD094F85000012803D109
:10139000022003B0BDE8F083012084F8500094F8E7
:1013A0005100002104281CBF052084F8510061650C
:1013B000A563E687A6872763E6862068A68621645C
:1013C00061640168490603D4016841F0400101608D
:1013D0006168731EE268B1FA81F1B3FA83F3DDF854
:1013E000288049095B09B2F5006F41EA030165D124
:1013F00031B137F8021BC1602763E08E0138E08607
:10140000012518F1010032D102E000BFFFF754FBC3
:10141000E08E18B9E08F002800F0B880206881685D
:1014200089070CD5E18E51B1012D08D1216B002522
:1014300031F8022BC2602163E18E0139E1868168B7
:10144000C907E3D0E18F0029E0D0C068A16B012576
:1014500021F8020BA163E08F0138E087D6E700BFD7
:10146000FFF72AFBA0EB0900404580F0AF80E08E3B
:1014700018B9E08F002800F089802068816889070A
:101480000CD5E18E51B1012D08D1216B002531F829
:10149000022BC2602163E18E0139E1868168C907B0
:1014A000DED0E18F0029DBD0C068A16B012521F8D7
:1014B000020BA163E08F0138E087D1E739B13978B9
:1014C0000173206B01302063E08E0138E086012536
:1014D00018F1010032D101E0FFF7EEFAE08E10B909
:1014E000E08F002852D02068816889070ED5E18EF0
:1014F00061B1012D0AD1216B002509780173216B9F
:10150000206801312163E18E0139E1868168C907D4
:10151000E2D0E18F0029DFD0C068A16B01250870FF
:10152000A06B0130A063E08F0138E087D4E700BFF3
:10153000FFF7C2FAA0EB0900404547D2E08E08B998
:10154000E08F18B32068816889070ED5E18E61B1FC
:10155000012D0AD1216B002509780173216B2068C8
:1015600001312163E18E0139E1868168C907DFD04D
:10157000E18F0029DCD0C068A16B01250870A06B49
:101580000130A063E08F0138E087D1E720460221D7
:1015900001224346CDF8009001F0FCF840B9204606
:1015A000802100224346CDF8009001F0F3F8B8B155
:1015B000606D40F02000606520206065002084F8A8
:1015C0005000012003B0BDE8F08300BF012084F883
:1015D0005100002084F85000032003B0BDE8F083E0
:1015E000A06838B9002002902068C1680291806824
:1015F00002900298012084F85100002084F85000E5
:10160000606D002818BF012003B0BDE8F083000022
:10161000411E0020B0EB116F1CBF012070474EF23D
:101620001002CEF2000251604EF62351CEF20001BC
:10163000F0230B700721906011607047002804BFF1
:101640000120704710B5044690F8410028B90020E9
:1016500084F84000204600F063F8242084F841001C
:101660002068D4E90212C36823F40053C3600369FD
:1016700023F440531A430261D4E904231143C2689E
:10168000194341F20C639A431143C1604169A26955
:1016900021F44071114343F60002C4F2010290426A
:1016A000416103D0FFF790FB02E000BFFFF7A0FB12
:1016B000D4E90023192148439900B0FBF1F048F226
:1016C0001F5CC5F2EB1CA0FB0C314FF69C73490963
:1016D000C0F6FF7301FB0300322303EB0010A0FBF5
:1016E0000C03F02000EA531000EB0110C3F3431188
:1016F000084490601069202120F4904010615069E6
:1017000020F02A005061D06840F40050D0600020E2
:10171000606484F8411084F84210606310BD0000DA
:1017200070B586B040F60004C4F20104006804F508
:101730004051002688420596CDE90366029601D005
:1017400006B070BD41F21800C4F20200016802AD9B
:1017500041F480410160016801F4804101910199E7
:10176000016841F0040101600068294600F00400AE
:10177000019001984FF40070029002200390032022
:1017800005902046FFF782F84FF48060CDE902060D
:10179000204629460496FFF779F806B070BD000090
:1017A0002DE9F04381B0044690F84100202809D18A
:1017B00000294FF0010018BF002A07D101B0BDE891
:1017C000F08300BF022001B0BDE8F0830020606418
:1017D00021201D460E4684F841001746FFF76CF99C
:1017E000A784E784A1688146B1F5805F02D12069B2
:1017F00000285DD037460020E28C2168002A5DD0A9
:101800006A1C24D0002D4AD0804600BF086800061C
:1018100008D4FFF751F9A0EB0900A8427AD8216853
:10182000C868F3E717B117F8010B04E038F8020BAA
:1018300000276FF35F204860E08C0138E084E08C83
:101840000028E3D13AE000BF0A68120609D40A680A
:10185000120606D40A6812065CBF0A685FEA0262D2
:10186000F2D51FB117F8012B05E000BF30F8022BAD
:1018700000276FF35F224A60E28C013AE284E28C37
:10188000002AE4D11AE000BF30F8022B00276FF3E2
:101890005F224A60E28C013AE284E28C72B10A680B
:1018A000120635D5002FEFD017F8012BF1E700BF56
:1018B00000273046E28C2168002AA1D10868400642
:1018C0001ED42DB3681C14D1086840062AD40868B9
:1018D000400627D40868400624D4086840064FF024
:1018E0000000F1D50DE000BF2068C1680068400627
:1018F00018D4FFF7E1F8A0EB0900A842F4D909E0F9
:101900000020202184F8411001B0BDE8F08300BF21
:10191000FFF7D2F80320202184F8411001B0BDE880
:10192000F08300BF0020202184F8411001B0BDE801
:10193000F0830000FEE70000FEE70000FEE7000085
:1019400070470000142882BF43F6CA20C0F600008A
:10195000704743F69C11C0F6000151F82000704713
:1019600058B10A46016841B1416831B1816821B17D
:101970008189002918BF002A02D10A20704700BFC0
:10198000C1890029F9D03721012301F089BE000067
:10199000002871D0016800296ED04268002A6BD0FF
:1019A0008168002968D08189002965D0C389002B0E
:1019B00062D02DE9F04F85B00769002380F82E3002
:1019C000002F838504BF1423036143690446002B61
:1019D00004BF322343618369002B04BF4FF4967325
:1019E000836110460122FFF761F8A068E1890022B7
:1019F0000025FFF75BF80220FEF734FFA068E189BD
:101A00000122FFF753F83220FEF72CFF2068ADF8D3
:101A10000850002800F0A68060682246002800F0E8
:101A2000A1809168002900F09D809189002900F033
:101A30009980D389002B00F0958040F602731546FB
:101A40000022ADF80A304FF0000BFFF72FF828689E
:101A50002E690DF10A0102AA02230096FFF76EFC1F
:101A60006A68A989054610460122FFF71FF82DB1C3
:101A7000042005B0BDE8F08F0A2070473220FEF741
:101A8000F1FEFFF719F805464FF0820A0DF10E0836
:101A90000DF10C092068ADF80CB0002862D0606828
:101AA000224600285ED0916800295BD091890029E8
:101AB00058D0D389002B55D016460022ADF80EA081
:101AC000FEF7F4FF3068376941464A460223009723
:101AD000FFF734FC7268B189064610460122FEF712
:101AE000E5FF002EC4D19DF80D00C00608D5FEF715
:101AF000E3FF401B63284FF00300CBD933E000BF66
:101B000020680021ADF8101060B36068224648B329
:101B1000916839B3918929B3D3891BB3EE23154654
:101B20000022ADF81230FEF7C1FF28682F690DF1D1
:101B3000120104AA02230097FFF700FC6A68A98932
:101B4000054610460122FEF7B1FF002D7FF490AF4D
:101B50009DF811000130C0B2022807D20B2005B059
:101B6000BDE8F08F0A2005B0BDE8F08F20461221B5
:101B7000002201F0B5FE0028F5D1204613210022F5
:101B800001F0AEFE0028EED120462421262201F0ED
:101B9000A7FE0028E7D120462A21802201F0A0FEDE
:101BA0000028E0D120462B21A92201F099FE00282F
:101BB000D9D120462C21032201F092FE0028D2D157
:101BC00020462D21E82201F08BFE0028CBD12046B3
:101BD0001521402201F084FE0028C4D120461121A5
:101BE0003D2201F07DFE0028BDD1204614210322B4
:101BF00001F05CFE0028B6D120462621702201F0BB
:101C00006FFE0028AFD120461521402201F068FE6A
:101C10000028A8D10520FEF725FE012084F82E001B
:101C2000002005B0BDE8F08F40B3026832B34268CF
:101C300022B3826812B3828902B3C289F2B102462A
:101C400000294FF00A0000F08C8092F82E30002B13
:101C500008BF704770B58AB00E4605A910461546F4
:101C600000F084F80446FEF727FF012C08D195F810
:101C70002D1000295ED0A96A61E000BF0A207047DC
:101C8000214600222046002985F82D2066D12868AB
:101C9000294600284FF00A045AD04868002857D037
:101CA0008868002854D08889002851D0C889002825
:101CB0004ED091F82E0000284AD05020CCF6575034
:101CC000099002208DF821000DF121000DF1220272
:101CD00000230DF1200CCDE90032029009AA08463C
:101CE0000C210423CDF80CC000F036FFD0B303283C
:101CF0002FD10799DDE90502B1607260306095F877
:101D00002C00294658B19DF81E2091F826008242E9
:101D100005D11C3105A8FEF7EBFB294620B305AB26
:101D20000DCB01F11C0C8CE80D00012081F82C007A
:101D3000002013E0012185F82D100146A862AA6950
:101D4000401A904224BF002085F82C00012005E0B5
:101D50000A2040F27001C2F200010C700AB0BDE826
:101D6000704070470520F4E70220F7E72DE9F04FB7
:101D70008FB040F27006C2F200060022327072701C
:101D8000B270F27032717271B27160B1026852B1A8
:101D9000426842B1826832B1828922B1C289002A86
:101DA00018BF002906D1012030700A200FB0BDE80D
:101DB000F08F00BF90F82E20002AF4D00D460021AD
:101DC0000D91CDE90B11044600F07EFC10B10FB06F
:101DD000BDE8F08F022030700DF12202204626214E
:101DE00001F0C0FC032805D10DF12202204652214A
:101DF00001F0B8FC30B10328E9D101200FB0BDE8F3
:101E0000F08F00BF03203070206800210028ADF85B
:101E10002610CAD0606822460028C6D091680029E2
:101E2000C3D091890029C0D0D389002BBDD09C2379
:101E300017460022ADF81930FEF738FE3868D7F89B
:101E400010C00DF119090DF1260249460223CDF803
:101E500000C0FFF773FA7A68B98907461046012275
:101E6000FEF724FE27B104200FB0BDE8F08F00BFBD
:101E70009DF827000E2100F07F02204601F030FD82
:101E80000028A4D109F10200059000204FF00508B8
:101E900004904FF0000B932000EB4B0A20208DF8AC
:101EA0001A00059800210160C0F8031004208DF885
:101EB00019A030700DF1260001900DF125008DF86C
:101EC00024100091029020460C214A46022309AFBB
:101ED0008DF82580039700F03FFE002840F0BE807B
:101EE0009DF82500052840F017819DF82400002862
:101EF00040F0128186F800809DF827009DF8281098
:101F00009DF829209DF826904840504080EA09001D
:101F10009DF82A10C0B28842204640F0FF800E2172
:101F2000802201F0C3FCBBF1020F08BFB9F1880F9A
:101F300000F02181002840F08B8020460D210022F6
:101F400001F0CEFC002840F0838070208DF81A004C
:101F5000DDF826009DF82A10059A0DF1190710608A
:101F60001171384607218DF819A000F0ABFC06204E
:101F7000307003208DF8250000208DF8240000909B
:101F80000DF1260001900DF12500029020460C2154
:101F90003A46092309AF039700F0DEFD002857D128
:101FA0009DF825000527032853D19DF8240000281B
:101FB0004FD10DF12600032100F02EFD002800F086
:101FC000DF8007213170A9F188009DF826A0B0FAC2
:101FD00080F041090AF00400012282EA9000814267
:101FE00000F0C9800427B9F1880F08BF0327049ABD
:101FF000D019C0B20A2800F2BE80D0B20BAA104499
:10200000059A11443A46FEF7BEFA9DF83600B9F13A
:10201000880F384404908DF8360040F0B580204693
:102020000E21802200F0DEFC90B9BBF1010F0BF114
:10203000010B0DF119094FF005087FF62CAF204672
:102040000E21802201F032FC05200FB0BDE8F08F98
:10205000074638460FB0BDE8F08F00BF074620683E
:1020600000210028ADF83810F3D060680028F0D0C7
:10207000A1680029EDD0A1890029EAD0E289002ACF
:10208000E7D09C22ADF83A2000224FF00008FEF77E
:102090000DFD206826690DF13A010EAA022325469E
:1020A0000096FFF74BF96268A189054610460122A8
:1020B000FEF7FCFC002DCCD120689DF839200028CB
:1020C000ADF83880C5D060680028C2D0A16800296A
:1020D000BFD0A1890029BCD0E389002BB9D062F020
:1020E0007F021C238DF83B2000228DF83A30FEF74A
:1020F000DDFC206826690DF13A010EAA0223009644
:10210000FFF71CF96068A1890122FEF7CFFC384671
:102110000FB0BDE8F08F00BF206800E0006800212C
:10212000ADF8381038B3606828B3A16819B3A18935
:1021300009B3E289FAB19C22ADF83A200022FEF7F9
:10214000B5FC206827690DF13A010EAA0223254645
:102150000097FFF7F3F86268A1890546104601224F
:10216000FEF7A4FC3DB99DF839000E2140F0800235
:10217000204601F0B5FB05200FB0BDE8F08F00BF91
:1021800007200FB0BDE8F08FDDE90B018DF837A017
:1021900028600D986960A8601420307000200FB08E
:1021A000BDE8F08F002947D00022CA600A834A6147
:1021B0000A618A604A600A604FF6FF728A81D8B36A
:1021C0000268CAB34268BAB38368ABB383899BB36E
:1021D0002DE9F04F83B0C78987B390F82E708FB385
:1021E0008B4602210026ADF80A1005461046194616
:1021F0000022ADF80860FEF759FC28682F690DF140
:102200000A0102AA02230097FFF798F86A68A989D1
:102210002C46054610460122FEF748FCB5B1BBF836
:102220000A005E4601300423ABF80A000020ADF836
:10223000080022469BE000BF0A2070470A2003B036
:10224000BDE8F08F0A2003B0BDE8F08F2068224679
:102250000028ADF8086000F085805068002800F084
:1022600081809168002900F07D809189002979D0D2
:10227000D389002B76D04FF0EE0915460022ADF839
:102280000A904FF0000AFEF711FC28682F690DF143
:102290000A0102AA02230097FFF750F86A68A98989
:1022A000054610460122FEF701FC4DB1BBF80A00BD
:1022B0005E460130ABF80A00ADF808A00423B8E789
:1022C0009DF80900BBF800208DF807008BF810007E
:1022D0008BF81100501CABF8000001200126FEF71E
:1022E000C1FA0DF108080BE002884174511C01800D
:1022F0000120FEF7B7FA632E06F1010680F0B280E6
:1023000020682246ADF808A060B3506850B39168C9
:1023100041B3918931B3D38923B317460022ADF875
:102320000A90FEF7C3FB38683D690DF10A01424689
:1023300002230095FFF702F87A68B989074610462C
:102340000122FEF7B3FB002FB0D19DF809109BF8D6
:102350001020584691428DF80710C5D042880132AE
:102360004280C1E70A230020ADF808005E461068ED
:1023700090B3506880B3916871B3918961B3D78984
:1023800057B39846022315460022ADF80A300027BD
:10239000FEF78CFB28682E690DF10A0102AA0223C0
:1023A0000096FEF7CBFF6A68A98905461046012210
:1023B000FEF77CFB002D47D0BBF80A005E460130DB
:1023C000ABF80A008BF81870ADF8087004272246A5
:1023D000106840B940E000BF00200A273076ADF811
:1023E00008001068C0B35068B0B39168A1B3918978
:1023F00091B3D38983B348F2140314460022ADF895
:102400000A30FEF753FB206826690DF10A0102AA83
:1024100002230096FEF792FF6268A18904461046E7
:102420000122FEF743FB3846002C3FF408AFBBF80F
:102430000A005E460130ABF80A0004200021317624
:1024400003B0BDE8F08F00BFADF808705E462246CD
:10245000474610680028C6D10A200021317603B013
:10246000BDE8F08F0BF1120220461221012301F08A
:1024700017F904283FF4D3AE034600285E467FF4E4
:10248000D5AE06F1130220461321012301F008F90D
:1024900004283FF4C4AE034600285E467FF4C6AE6F
:1024A00006F1140220461521012301F0F9F8042851
:1024B0003FF4B5AE034600285E467FF4B7AE06F1A2
:1024C000150220461421012301F0EAF804283FF404
:1024D000A6AE034600285E467FF4A8AE06F11602BB
:1024E00020461121012301F0DBF804283FF497AEC8
:1024F000034600285E467FF499AE06F11702204697
:102500000D21012301F0CCF804283FF488AE0346E6
:1025100000285E467FF48AAE4FF000080DF10709EF
:1025200020460A21802201F0DBF9002840F0928049
:1025300020460A214A46012301F0B2F8002840F063
:1025400089809DF8070028B1BBF808105846013172
:10255000ABF808104FEA88160027B819C2B2204617
:10256000092101F0BDF9002868D1B8B201373F2830
:10257000F3D320460A214A46012301F091F80028AE
:1025800068D19DF80700402805D0BBF808105846D0
:102590000131ABF80810002707E000BF501CABF872
:1025A0000600B8B201373F2820D2204609214A460A
:1025B000012301F075F800284CD1BBF80410B819BC
:1025C0004B1C9DF8071085B28D425A46ABF804307B
:1025D000E7D0BBF80620002AE0D15B46ABF80C0040
:1025E0008BF80E008BF80F10D8E700BF20460A21A9
:1025F0004A46012301F054F860BB9DF8070028B15A
:10260000BBF8081058460131ABF808101FFA88F0E3
:1026100008F101080328FFF483AFBBF80210012280
:1026200058468BF8182029B9BBF8060010B9BBF83A
:102630000800E8B10523224695E600BF03460428BA
:102640001ED1BBF80A1058460131ABF80A1004231A
:10265000224688E60346042822467FF484AEBBF86F
:102660000A10042301315846ABF80A107BE600BF7C
:102670009BF8100000230130C0B2022838BF0B23A2
:10268000224670E60B2899BF03A151F8200043F6BB
:10269000CA20C0F600007047B43A0008703A00083B
:1026A0008D3A0008293B00080A3B0008FB3A000865
:1026B000C03A0008D93A0008F03A0008AF3A0008DA
:1026C000973A0008E33A000870B3016861B34268C2
:1026D00052B3816841B3818931B3C38923B390F880
:1026E0002E300BB370B584B00025902304461046FD
:1026F0000022ADF80C50ADF80E30FEF7D7F9206887
:1027000026690DF10E0103AA02230096FEF716FEBC
:102710006268A1892646044610460122FEF7C6F9E2
:1027200024B1042004B070BD0A20704730689DF8C1
:102730000D30ADF8085048B37068324630B3916838
:1027400021B3918911B3D68906B323F0080310266B
:10275000154600228DF80A608DF80B30FEF7A6F9B9
:1027600028682E690DF10A0102AA02230096FEF7DD
:10277000E5FD044600286868A9894FF0010218BFEA
:102780000124FEF793F9A00004B070BD0A2004B044
:1027900070BD00002DE9F04381B0089C98461546B5
:1027A0000E468146FEF788F9201A00EB0804FEF772
:1027B00083F940F20C01C2F200010968C1F3CB3188
:1027C00061430091D9F800108A683240921BB2FA36
:1027D00082F25209AA423DD0074618F1010031D0D9
:1027E000FEF76AF9C01BA04238D200980099002871
:1027F000A1F101010091D9F80010896808BF0446D1
:1028000001EA0600801BB0FA80F04009A842E7D137
:1028100020E000BF88683040801BB0FA80F040099B
:10282000A84217D088683040801BB0FA80F0400979
:10283000A8420FD088683040801BB0FA80F0400971
:10284000A84207D088683040801BB0FA80F0400969
:10285000A842DFD1002001B0BDE8F083D9E9000132
:102860004268B1F5827F22F0E00242600BD1D9F8D4
:102870000810B1F5004F02D0B1F5806F03D10168A7
:1028800021F040010160D9F82810B1F5005F07D1AF
:10289000016821F400510160016841F400510160B8
:1028A000012089F85100002089F85000032001B070
:1028B000BDE8F08370470000FEF704B970470000E0
:1028C000FEE700002DE9F04341B1042901F0030CBB
:1028D0000CD246F2633203464BE000BF632263230F
:1028E000471842547B70BDE8F08300BF01F0FC0E36
:1028F000002446F26332034613F8045B96B26A4042
:1029000082EA0212D2B2150245EA1625D60013F861
:10291000037C86EA12126A4087EA020585EA0515F9
:10292000EDB22E0246EA1222EE0013F8028C86EA7D
:1029300015156A4088EA020585EA0515EDB22E02F2
:1029400046EA1222EE0013F8019C86EA15156A4049
:1029500089EA020585EA0515EDB22E0246EA122241
:10296000EE00043486EA1515E6B2764582EA0502E1
:10297000C2D1BCF1000F2FD01F7896B27A4082EA04
:102980000212D2B2170247EA1627D60086EA1212BE
:10299000BCF1010F82EA07021ED05F78BCF1020F82
:1029A00087EA020787EA0717FFB24FEA072646EAD7
:1029B00012224FEAC70686EA171782EA07020BD0EF
:1029C0009B78534083EA0313DBB21F0247EA1222CB
:1029D000DF0087EA13135A40130A471842547B70EA
:1029E000BDE8F08370B582B016460DF107020123F1
:1029F0000C46054600F054FE10B102B070BD00BF99
:102A00009DF807002146B0438DF80700C2B2284662
:102A100000F066FF02B070BD0229C0F09B802DE976
:102A2000F047A1F1020E5FEA0E6209D0CA1E032A26
:102A30000EF0030C08D246F26332034646E000BFB4
:102A400046F2633275E000BF0EF0FC08002546F246
:102A50006332034613F8046B97B2724082EA0212A3
:102A6000D2B2160246EA1726D70013F8034C87EABB
:102A700012127240544084EA0414E4B2260246EA78
:102A80001222E60013F8029C86EA1414624089EAD6
:102A9000020484EA0414E4B2260246EA1222E600A2
:102AA00013F801AC86EA141462408AEA020484EA4C
:102AB0000414E4B2260246EA1222E600043586EA4D
:102AC0001414EEB2464582EA0402C3D1BCF1000FF1
:102AD0002FD01C7895B2624082EA0212D2B2140260
:102AE00044EA1524D50085EA1212BCF1010F82EAEE
:102AF00004021ED05C78BCF1020F84EA020484EA6E
:102B00000414E4B24FEA042545EA12224FEAC40550
:102B100085EA141482EA04020BD09B78534083EABE
:102B20000313DBB21F0247EA1222DF0087EA131306
:102B30005A4010F80E30D7B2BB42BDE8F04709D179
:102B4000084410F8010C91B2A0EB1120B0FA80F00B
:102B500040097047002070472DE9F04F87B0DDE94C
:102B6000129B4FF0000AB9F1000F8DF817A08DF8F5
:102B700016A08DF815A08DF814A004D099F8005077
:102B800089F800A0AA46BBF1000F1CBF00278BF8F4
:102B9000007040F27008C2F20008002788F8017047
:102BA00088F8027088F80370002A88F8047014BF4F
:102BB00016780026002888F8056088F8067000F06E
:102BC00017810768002F00F013814768002F00F07D
:102BD0000F818668002E00F00B818689002E00F0A0
:102BE000078104464FF00A007AB101F0FD050C2D73
:102BF0000BD1E5894DB111980C290CD100284FF06B
:102C00000A0018BF5FEA0A6502D107B0BDE8F08F7D
:102C1000B9F1000FF9D002A80EC002200025ADF8CE
:102C20001A00384631460022ADF81850FDF73EFF35
:102C3000206827690DF11A0106AA02230097FEF702
:102C40007DFB6268A1890646104601222746FDF7F2
:102C50002DFF1EB1042007B0BDE8F08F3868ADF835
:102C60001850002800F0C48078683A46002800F028
:102C7000BF809168002900F0BB809189002900F095
:102C8000B780D389002B00F0B38047F60873154650
:102C90000022ADF81A300024FDF708FF28682E69DD
:102CA0000DF11A0106AA02230096FEF747FB6A6897
:102CB000A989064610460122FDF7F8FE002EC9D16B
:102CC0003868ADF81840002800F0928078683A46DD
:102CD000002800F08D809168002900F0898091899A
:102CE000002900F08580D289002A00F0818048F216
:102CF0001402ADF81A200022FDF7D8FE38683E69AC
:102D00000DF11A0106AA02233C460096FEF716FBB7
:102D10007A68B989064610460122FDF7C7FE002EE3
:102D200098D138460D21002200F0DAFD04990028E0
:102D30007FF46BAFA9B300250398396810F8012B15
:102D400000290390ADF8185052D0786800284FD071
:102D5000B96800294CD0B989002949D0FB89002BDA
:102D600046D012238DF81B2000228DF81A30FDF773
:102D70009DFE38683E690DF11A0106AA02233C4601
:102D80000096FEF7DBFA7A68B989064610460122FA
:102D9000FDF78CFE002E7FF45DAF0498013804909F
:102DA000CAD110980D2100F00702384600F098FDB6
:102DB00000287FF42AAF029A3846012100F090FDE6
:102DC000029900287FF421AF0C2915D138460D2136
:102DD000802200F06BFD00284ED0044638460121C9
:102DE000002200F07DFD204607B0BDE8F08F00BF57
:102DF0000A2007B0BDE8F08FFDF75EFE0299044699
:102E00000E3921D1B1FA81F040090DF11705049076
:102E1000FDF752FE7969001B884213D2384604211F
:102E20002A46012300F03CFC002847D19DF81700FA
:102E3000C10688F8030000F17F80810700F17E80E1
:102E4000C007E5D003264EE00DF11705FDF734FE6F
:102E50007969001B88422BD2384604212A46012377
:102E600000F01EFC30BB9DF81700810788F80300B6
:102E700036D4C007EAD01BE0FDF71EFE04460DF174
:102E80001705FDF719FE7969001B884210D23846F4
:102E900004212A46012300F003FC58B99DF81700CD
:102EA000810688F803004BD4810719D4C007E8D005
:102EB000032616E00646042803D012E0064604283E
:102EC00011D138460121002200F00AFD38460D21BB
:102ED0008022FFF787FD042007B0BDE8F08F00BF18
:102EE0000526002004900DF1160238460621012324
:102EF00000F0D6FB054688B90DF1150238460A21C7
:102F0000012300F0CDFB054640B905AA38460C2147
:102F10000123012400F0C4FB0546A8B13846012175
:102F2000002200F0DDFC38460D218022FFF75AFD1B
:102F3000284607B0BDE8F08F0026D4E70526D2E783
:102F4000002004900026CEE79DF81600B9F1000F8E
:102F500088F804009DF8150088F801009DF8141009
:102F600001F0070188F8021088F8064018BF89F8B8
:102F70000000BBF1000F18BF8BF8001086B1384677
:102F80000121002200F0ACFC02980C2804D1384644
:102F90000D218022FFF726FD304607B0BDE8F08FF7
:102FA000049939B138460121002200F099FC07B09C
:102FB000BDE8F08F0138C0B25FFA8AF188421FD2B3
:102FC00000241198092102193846012300F068FBFA
:102FD00000287FF41AAE9DF8150001348442F0D326
:102FE00038460121002200F07BFC00287FF40DAE62
:102FF00038460D218022FFF7F5FC07B0BDE8F08FC1
:1030000038460121002200F06BFC38460D21802259
:10301000FFF7E8FC052007B0BDE8F08FD4B0FDF75E
:103020005FFD29AC201D2421FDF7F2FA0220299032
:1030300001202D9010202E90002520463095FDF780
:10304000EBFE28B1EFF3108072B600BFFEE700BFC1
:103050000F20CDE90F050FA80021CDE911551395DB
:10306000FDF7D4FD20B1EFF3108072B6FEE700BF8C
:10307000002541F21800CDE92B55CDE92955C4F2C0
:103080000200016841F2000841F01001016001688E
:10309000C4F2010801F010010F910F99016800229C
:1030A00041F00401016001684FF4005401F0040193
:1030B0000F910F99016841F00801016000684FF419
:1030C000005100F008000F900F984046FDF7EEFC0D
:1030D000A8F5006A5046102101224FF0100B01267E
:1030E000FDF7E4FCA8F58069484601210122FDF7BF
:1030F000DDFCCDE9294629AC0227404621462B9527
:103100002C97FDF7C3FB50462146CDE929B6CDE902
:103110002B57FDF7BBFB21464846CDE92966CDE993
:103120002B57FDF7B3FB40F2F00608F50050C2F252
:1031300000064FF4827186E823000A204FF40072E3
:10314000C6E90A503046C6E90355C6E90552C6F835
:103150001CB0C6E90855FEF75FF828B1EFF3108000
:1031600072B600BFFEE700BF40F2481008F52051DC
:10317000C2F200000C234FF4E13280E82600C0E9DF
:103180000355C0E90535C561FEF758FA20B1EFF3E4
:10319000108072B6FEE700BF40464FF40051012296
:1031A000FDF784FC40F2780BC2F2000B5D46102064
:1031B00045F8486FC0F201000BF1540C1421322283
:1031C0004FF496738CE80F002846CBE913A9FEF75D
:1031D000DFFB40F2000AC2F2000A8AF80000002079
:1031E0008DF8A3000DF1A3012846FEF7B9FB9DF869
:1031F000A31081468BF800109AF800100846FFF7DC
:1032000041FA05464846FFF73DFA9DF8A3600FAC2A
:1032100007460FF2FC32204664212B46CDE90076AA
:10322000FCF7F2FF2046FDF78FF982B240F248101A
:10323000C2F2000021466423FEF7B2FA9AF80000B9
:1032400040EA0900000617D040F20000C2F2000078
:10325000007828B140F20000C2F2000090F800901F
:103260008BF8019040464FF40051FDF717FC962073
:10327000FDF7F8FAF6E700BF0BF1480908A9484640
:10328000FEF790FF0C990D9A089B099F0A9E0B9DD3
:10329000CBF82C30CBF84020CBF83C10CBF8385092
:1032A000CBF83460CBF83070BDF83810064640F2E9
:1032B0000000C2F20000ABF8441086703046FFF701
:1032C000E1F9BDF82210BDF82870BDF82620BDF840
:1032D0002A508DE886000FAF0346D7A238466421F6
:1032E0000395FCF791FF3846FDF72EF982B240F2C4
:1032F0004810C2F2000039466423FEF751FA4EB17D
:1033000040464FF40051FDF7C9FB9620FDF7AAFA9D
:10331000F6E700BF40464FF400510022FDF7C6FB20
:103320007820FDF79FFA40464FF400510122FDF747
:10333000BDFB7820FDF796FA40464FF4005100227D
:10334000FDF7B4FB7820FDF78DFA40464FF40051AD
:103350000122FDF7ABFB7820FDF784FA40F248101C
:10336000C2F20000C3A11A226423FEF719FA0DF17C
:10337000A40A4E46CDF81C9003E000BF0120FDF7E3
:1033800071FAFDF799FB9BF80910D9B10546DBF8F6
:103390001000281A16D440464FF40051FDF77EFB6A
:1033A0009BF80900DBF8141001388BF80900294458
:1033B0000006CBF8101005D140464FF40051012211
:1033C000FDF774FBFDF778FBDBF81810411A1E2996
:1033D000C0F0F880CBF81800304651A9FEF724FC65
:1033E0008146002840F20000C2F2000080F80190FF
:1033F00000F09080A9F10300C0B2FD2800F2E28045
:1034000040F270008BF80190C2F2000000788BF857
:10341000020040F27500C2F2000000788BF8030051
:1034200040F27300C2F2000000788BF8040040F212
:103430007400C2F2000000788BF8050040F27100C1
:10344000C2F2000000788BF8060040F27200C2F26F
:10345000000000788BF8070040F27600C2F200000E
:1034600000788BF80800FDF727FB9BF80A1005464B
:10347000012907D1DBF81C0040F2DC51281A8842F0
:10348000C0F0A0804846FFF7FDF89BF80210814687
:103490000846FEF757FA9BF803109BF804209BF8A8
:1034A00005309BF806609BF807709BF808408DE894
:1034B0004F000DF1A40A43F61A22079E5046A021A0
:1034C000C0F600024B4605970694FCF79DFE504659
:1034D000FDF73AF882B240F24810C2F200005146BD
:1034E0006423FEF75DF940464FF400510022FDF7DA
:1034F000DDFA05208BF809005020CBF81400FDF709
:10350000DBFA5030CBF8100001208BF80A00CBF822
:103510001C5057E051985299539ACBF82820CBF879
:103520002410CBF82000DBF80C000130CBF80C00A5
:103530009DF84E3100200A2B8BF80A0030D85046F7
:10354000402153A2FCF760FE9DF84E11054699B14B
:1035500043F66127002651ACC0F60007A35D0AEBD5
:103560000500C5F140013A46FCF74EFE9DF84E11AC
:1035700001368E420544F1D30AEB0500C5F1400146
:1035800046A2FCF741FE5046FCF7DEFF82B240F255
:103590004810C2F2000051466423FEF701F9079E6D
:1035A00040464FF400510022FDF780FA01208BF8CD
:1035B0000900FA20CBF81400FDF77EFAFA30CBF8B8
:1035C000100000BFFDF778FA9BF8091000293FF4BE
:1035D000D5AE0546DBF81000281A3FF5CFAE4046C1
:1035E0004FF40051FDF75AFA9BF80900DBF814106C
:1035F00001388BF8090029440006CBF810107FF43D
:10360000BDAE40464FF400510122FDF74FFAB5E63A
:10361000494E49543D25732056455253494F4E5FFC
:10362000524541443D25732056455253494F4E3D26
:10363000253032580D0A00005350493D257320565D
:10364000455253494F4E5F4348414E4745533D25F0
:1036500075204649464F5F4241443D2575204C4503
:1036600056454C5F4241443D257520494F3D2575E7
:103670000D0A000052454144593A20707265736545
:103680006E74206F6E6520636172642E0D0A0000F7
:10369000554944282575293A200000000D0A0000EC
:1036A0002DE9F04182B086460020BEF1000FADF852
:1036B000040051D0DEF8000000284DD0DEF80400F0
:1036C000002849D0DEF80860002E45D00C46BEF830
:1036D0000C10002940D04FF00A0CCAB3BEF80E50AF
:1036E000B5B37E2606EA44061D46002B18BF012509
:1036F00046EAC5168DF80660002B90460CBF12787E
:1037000000228DF80720002274461E46FDF7CEF9F0
:103710002746206824690DF1060101AA02230094BE
:10372000FDF70CFE0546002804467868B9894FF07D
:10373000010218BF0124FDF7B9F94FEA840C3EB12C
:1037400035B99DF805004FF0000C454688F800009B
:10375000604602B0BDE8F0814FF00A0C604602B04E
:10376000BDE8F081F0B589B08DF81B10002102236F
:103770000028ADF818108DF817308DF81610ADF838
:1037800020106DD0016800296AD04368002B67D0F3
:103790008168002964D08189002961D0C789002F00
:1037A0005ED016469C22ADF822200546184600221F
:1037B0000027FDF77BF928682C690DF1220108AA82
:1037C00002230094FDF7BAFD6A68A9892C460546D4
:1037D00010460122FDF76AF915B1042009B0F0BDC9
:1037E00020689DF82130ADF81C70C8B3606822468F
:1037F000B0B39168A1B3918991B3D78987B363F0CE
:103800007F031C27154600228DF81E708DF81F308F
:10381000FDF74CF928682F690DF11E0107AA022354
:103820000097FDF78BFD6A68A989054610460122BD
:10383000FDF73CF9002DD0D10DF1170006A90722A4
:103840000DF11607CDE9002102900DF11B02204673
:103850000C2101230397FFF77FF928B109B0F0BDD0
:103860000A2009B0F0BD00BF9DF8170002280BD157
:103870009DF8160090B140F27000C2F200000921DC
:103880000170052009B0F0BD40F27000C2F20000E6
:1038900008210170052009B0F0BD00BF002E1CBF3B
:1038A000BDF818003080002009B0F0BD70B582B0BE
:1038B00016460DF1070201230C460546FFF7F0FE00
:1038C00010B102B070BD00BF9DF807002146304323
:1038D0008DF80700C2B2284600F002F802B070BDB1
:1038E000B0B582B00023ADF8043078B303686BB391
:1038F00043685BB384684CB3B0F80CC0BCF1000FF4
:1039000024D0C48914B37E2404EA41018DF8061042
:103910008DF807200546184661460022FDF7C6F8D7
:1039200028682C690DF1060101AA02230094FDF715
:1039300005FD044600286868A9894FF0010218BFF8
:103940000124FDF7B3F8A00002B0B0BD0A2002B018
:10395000B0BD30380A2801D20120704700207047DE
:1039600030313233343536373839414243444546B5
:1039700040305800303132333435363738396162AF
:1039800063646566403078000400000800000000B1
:10399000000000020001000010000000883A00084A
:1039A000783A0008D23A0008673A0008B73A0008A7
:1039B0006C3A00081D3B0008AB3A00089F3A00082B
:1039C000133B0008243B0008CA3A0008CA3A000822
:1039D000CA3A0008CA3A0008CA3A0008CA3A0008B7
:1039E000CA3A0008CA3A0008CA3A0008833A0008EE
:1039F000000000000000000001020304060708099F
:103A0000000000000102030401020203040506078E
:103A100008090A0B0C0D0E0F10104552524F523D63
:103A200025732053544147453D257320434D443D64
:103A300025303258204952513D25303258204552C8
:103A4000523D25303258204649464F3D257520428B
:103A500049543D25752056414C49443D25750D0A74
:103A60000025303258200041545141004243430068
:103A70004E4F5F43415244004241445F48414E44EF
:103A80004C4500444F4E45004E4F4E450044555066
:103A90004C4943415445004241445F415247004133
:103AA0005451415F4C454E4754480053414B004EE2
:103AB00041434B004F4B00414E5449434F4C4C0047
:103AC000434F4C4C4953494F4E00554E4B4E4F5768
:103AD0004E0057414B455550004352435F455252AB
:103AE0004F52004445564943455F4552524F52009C
:103AF000415554485F4552524F520050524F544F17
:103B0000434F4C5F4552524F5200494F5F4552520E
:103B10004F5200415451415F424954530053454C68
:103B20004543540048414C540054494D454F555469
:103B300000000000583B00080000002010000000BA
:103B400050010008683B00081000002088070000B2
:103B500070010008000000000A010A0001000000D6
:083B60001000000000127A00C1
:04000005080000ED02
:00000001FF
