:020000040800F2
:1000000000080020C9010008B5210008AD21000842
:10001000B12100085D0800086131000800000000FF
:100020000000000000000000000000005531000842
:100030006108000800000000B921000859310008DB
:10004000E3010008E3010008E3010008E301000800
:10005000E3010008E3010008E3010008E3010008F0
:10006000E3010008E3010008E3010008E3010008E0
:10007000E3010008E3010008E3010008E3010008D0
:10008000E3010008E3010008E3010008E3010008C0
:10009000E3010008E3010008E3010008E3010008B0
:1000A000E3010008E3010008E3010008E3010008A0
:1000B000E3010008E3010008E3010008E301000890
:1000C000E3010008E3010008E3010008E301000880
:1000D000E3010008E3010008E3010008E301000870
:1000E000E3010008E3010008E301000800F002F862
:1000F00000F05BF814A696E8000CB244B344DA456D
:1001000001D100F052F8BAE80F000FA696E83000CF
:10011000A5EB040504EB0607AAEB0704A7F101070A
:100120004FEA15154FEA3414A4F10104AC4201D38F
:1001300000F03BF813F0010F18BFFB1A43F0010366
:1001400000F001F8DBE71847C0470000E047000077
:10015000103A24BF78C878C1FAD8520724BF30C8F3
:1001600030C144BF04680C60704700007047000055
:100170000023002400250026103A28BF78C1FBD8B0
:10018000520728BF30C148BF0B607047752900F087
:10019000AB80782900F0E480732900F0EF82002022
:1001A00070471FB51FBD10B510BD00F01DFB1146F7
:1001B000FFF7F7FF03F0A0FB00F03BFB03B4FFF7F2
:1001C000F2FF03BC00F042FB0948804709480047A2
:1001D000FEE7FEE7FEE7FEE7FEE7FEE7FEE7FEE7F7
:1001E000FEE7FEE704480549054A064B7047000054
:1001F0005D310008ED00000800020020000800202A
:1002000000040020000400200FB41CB50C0007AA55
:10021000009007D04142A14202D32044401E01E099
:100220004FF0FF30074B7B4469460190069800F081
:1002300078FA0021002C01D0009A11701CBC5DF8E6
:1002400014FB00001F05000070B5044685690068B6
:10025000C10601D5302600E02026C00707D070BDBA
:10026000D4E9012130469047206A401C20626D1E6F
:10027000F6D570BD70B5044685690078C00707D112
:1002800070BDD4E9012120209047206A401C2062E3
:100290006D1EF6D570BD70B50C460546012A05D019
:1002A0002878800600D5EA69002302E0012305E0F2
:1002B0005B1C934202D2E05C0028F9D1A869E618E1
:1002C000C01AA861286A184428622846FFF7BCFFB4
:1002D00004E0D5E9012114F8010B9047B442F8D3AA
:1002E0002846FFF7C7FF70BD2DE9F0410646002400
:1002F00010687529314616A510D0AFF3008000288C
:1003000002DA404213A507E031688A0701D512A539
:1003100002E0490704D511A5012401E0AFF30080F4
:1003200000210A2206F1240709E0B0FBF2FCB0FB31
:10033000F2F302FB1C00303078541846491C0028A8
:10034000F3D123462A463046BDE8F04100F08AB991
:10035000000000002D0000002B0000002000000025
:1003600070B504460D4621461068AFF30080218821
:10037000090502D50F4A7A4402E00E4A7A440E3249
:10038000002104F1240305E000F00F060009965D4A
:100390005E54491C0028F7D120780023000704D5BB
:1003A000702D02D009B1022311322046BDE8704001
:1003B00000F058B9724300002DE9F05F8946044609
:1003C0004FF0000ADFF824B1FB44C0F820A020461B
:1003D000E168884700287DD0252806D0D4E901218E
:1003E0009047206A401C2062F1E700255F462046C6
:1003F000E16888472028064607DB312E05D2B81968
:1004000010F8200C08B10543F1E7A80701D525F045
:100410000405C4F81CA00027C4F818A02A2E09D08F
:10042000304604F05CF938B304EB8708303EC8F876
:10043000186019E059F8041B204604EB870291610B
:10044000E1688847012F064618D1E069002820DAC4
:1004500025F020051DE0D8F8180000EB800006EB21
:1004600040003038C8F818002046E1688847064642
:1004700004F035F90028EED1012F0AD02E2E08D134
:100480002046E16888477F1C0646022F45F020057C
:10049000C4DBA069002803DA404245F00105A061F1
:1004A000E80701D025F01005A6B1A6F141001928F2
:1004B00002D8203645F400654A463146204625607C
:1004C0004D46FFF763FE60B1012807D0ED1D25F012
:1004D000070000E007E000F1080978E705F10409EA
:1004E00075E730467AE7206ABDE8F09F4843000090
:1004F00040EA010310B59B070FD1042A0DD310C8A1
:1005000008C9121F9C42F8D020BA19BA884201D9F2
:10051000012010BD4FF0FF3010BD1AB1D30703D03A
:10052000521C07E0002010BD10F8013B11F8014BF0
:100530001B1B07D110F8013B11F8014B1B1B01D10C
:10054000921EF1D1184610BD10B5431C02E010F800
:10055000011B71B18107FAD14FF0013202C88C1A28
:100560008C4314EAC211F9D0C01A0A0603D0C01E87
:1005700010BDC01A10BD0A0401D0801E10BD0902B2
:10058000FCD0401E10BD032A40F2308010F0030C56
:1005900000F0158011F8013BBCF1020F624498BFD6
:1005A00011F801CB00F8013B38BF11F8013BA2F173
:1005B000040298BF00F801CB38BF00F8013B11F0EE
:1005C000030300F0DF80083AC0F0088051F8043BD4
:1005D000083A51F804CBA0E80810F5E7121D5CBFFB
:1005E00051F8043B40F8043BAFF30080D20724BF2E
:1005F00011F8013B11F801CB48BF11F8012B24BFC2
:1006000000F8013B00F801CB48BF00F8012B704710
:100610004FF0000200B5134694469646203922BF9B
:10062000A0E80C50A0E80C50B1F12001BFF4F7AFE6
:10063000090728BFA0E80C5048BF0CC05DF804EBC8
:10064000890028BF40F8042B08BF704748BF20F836
:10065000022B11F0804F18BF00F8012B7047704734
:10066000704770472DE9F0470D469946924604467B
:1006700000F124080168880604D5E06921F0100122
:10068000216000E00120A84201DD471B00E00027B7
:10069000A1697A1902EB0900081AA0612078C00646
:1006A00002D42046FFF7D0FD002608E0D4E901215E
:1006B0001AF806009047206A401C761C20624E45BE
:1006C000F4DB2078C0060AD52046FFF7BDFD06E022
:1006D000D4E9012130209047206A401C2062381E56
:1006E000A7F10107F4DC07E0D4E9012118F80500BF
:1006F0009047206A401C2062281EA5F10105F3DC0A
:100700002046FFF7B7FD2078000602D50220BDE89D
:10071000F0870120FBE7000001694A1C02610878AC
:10072000704700B58FB0CDE9013100210591054931
:100730007944CDE9031011466846FFF73DFE0FB03E
:1007400000BD0000E5FFFFFFD1E900239A4202D27D
:10075000531C0B601070704710B5436913B1AFF3B1
:10076000008001E0FFF797FD012010BD127800F135
:1007700024010A7000224A700122EDE711684FF04F
:10078000FF32E9E710B5203AC0F00B80B1E818500D
:10079000A0E81850B1E81850A0E81850203ABFF46B
:1007A000F5AF5FEA027C24BFB1E81850A0E818500A
:1007B00044BF18C918C0BDE810405FEA827C24BF5E
:1007C00051F8043B40F8043B08BF7047D20728BFEC
:1007D00031F8023B48BF11F8012B28BF20F8023B3B
:1007E00048BF00F8012B7047754600F02BF8AE4665
:1007F00005006946534620F00700854618B020B52D
:10080000FFF7F0FCBDE820404FF000064FF0000776
:100810004FF000084FF0000BAC46ACE8C009ACE864
:10082000C009ACE8C009ACE8C00921F007018D4659
:10083000704710B50446AFF300802046BDE8104075
:10084000FFF7BCBC00487047100000200149182089
:10085000ABBEFEE72600020070470000FEE7000086
:1008600070470000B0B5044600F026F9054640F296
:100870000400C2F200000078611C18BF044400BFED
:1008800000F01AF9401BA042FAD3B0BD2DE9F04F99
:1008900082B00E68002E00F0FD8041F20042C4F2EA
:1008A0000102042340F2004E904208BF03234FF69A
:1008B000FF7CC4F2010E009300240123C1F2100C4E
:1008C0004FF0000A4FF000094BE000BF41F2000278
:1008D000C4F20102009F904208BF022704F00C03FB
:1008E0000F229A402BEA020207FA03F34FEA9A0515
:1008F0001A4346F825204E6840F20C45F202DEF815
:10090000082054BF22EA080242EA0802C4F20105A4
:10091000CEF808202A68B30254BF22EA080242EA4D
:1009200008022A60B303DEF8042054BF22EA08025A
:1009300042EA0802F303CEF80420DEF800204FF06C
:10094000010354BF22EA080242EA0802CEF800205E
:100950000E680AF1010A36FA0AF204F1040400F002
:10096000998003FA0AFB16EA0B08F1D04E68664537
:1009700012DC122E56D8DFE806F0350B4D495555DE
:10098000555555555555555555555545510000BF6B
:10099000D1F80C9046E000BF4FF6FF72C1F2210281
:1009A00096420FDC0022C1F2110296421AD00022B8
:1009B000C1F21202964215D00022C1F221029642E3
:1009C00010D02FE00022C1F2220296420AD000226B
:1009D000C1F23102964205D00022C1F232029642A3
:1009E00020D100BF8A684AB1012A14BFC0F814B0F0
:1009F000C0F810B04FF0080914E000BF4FF0040930
:100A000010E000BFCA6802F104090BE04FF00009D2
:100A100008E000BFCA6802F1080903E0CA6802F1F1
:100A20000C0900BF02462646B8F5807F24BF043279
:100A3000203E17680F25B54027EA050509FA06F696
:100A400035431560CA79D2067FF582AF41F21803AB
:100A5000C4F202031A68AEF57E7642F001021A6013
:100A60001A6802F001020192019A2AF0030256F874
:100A700002B040F60002C4F20102904208D040F6F3
:100A80000042C4F2010290427FF420AF012725E723
:100A9000002723E702B0BDE8F08F0000C26802EA39
:100AA0000103914341EA034101617047002A08BFF5
:100AB000090401617047000040F2F810C2F2000022
:100AC00000687047002804BF01207047F0B581B06E
:100AD000044690F83D0028B9002084F83C002046E8
:100AE00000F0A2F8242084F83D002068016821F07D
:100AF00001010160016841F400410160016821F4D5
:100B00000041016000F04CFB636848F2A16CC0F248
:100B1000010C40F60011C0F23D0163453CBF48F2B4
:100B20008041C0F21E01884202D2012001B0F0BD16
:100B30004DF68361C4F21B31A0FB01122168970CB2
:100B4000D1F804E04FF496762EF03F0545EA924541
:100B50004D60774348F638160D6AC0F24106A7FB90
:100B6000067625F03F07634538BF960C721C3A4362
:100B70000A62CA6948F2A0664CF6FF77C0F2010625
:100B8000B34222EA07020BD801385B00B0FBF3F056
:100B900001306FF31F30042898BF04201BE000BF12
:100BA000A768013857B119277B43B0FBF3F0013038
:100BB0006FF31F3070B100F5804007E003EB430393
:100BC000B0FBF3F001306FF31F3018B100F50040B7
:100BD00001E000BF01201043C8610868D4E9072381
:100BE00020F0C000104318430860886848F2FF32C4
:100BF00004F10C0790438CCF18431043A66988601A
:100C0000C86820F0FF0038433043C860086840F0EF
:100C10000100086000202021206484F83D1020633A
:100C200084F83E0001B0F0BD10B586B0016845F211
:100C30000040C4F2000081424FF00001CDE90411F0
:100C4000CDE9021102D006B010BD00BF41F2180478
:100C5000C4F20204216800F5384041F00801216027
:100C6000216801F0080101910199C021029112212E
:100C700003910321059102A9FFF708FE606840F483
:100C800000106060606800F400100190019806B0E8
:100C900010BD000040F2040040F2F811C2F2000062
:100CA000C2F2000100780A68104408607047000032
:100CB00080B542F20000C4F20200016841F0100168
:100CC0000160032000F07AF80F2000F005F800F032
:100CD00027F8002080BD000070B540F20406C2F283
:100CE000000640F20C013278C2F200014FF47A7330
:100CF0000968B3FBF2F20446B1FBF2F1084601F0D9
:100D0000C3F80F2C4FF0010508D838B94FF0FF3069
:100D100021460022002500F025F87460284670BDA9
:100D200082B041F21800C4F202000168022241F0D0
:100D300001010160016801F001010191019941681F
:100D400041F080514160406800F080500090009870
:100D50000420C4F20100016862F31A61016002B06C
:100D60007047000010B54EF60C5CCEF2000CDCF8BB
:100D70000030C3F3022E8EF00704042C28BF042495
:100D8000BEF103034FF0FF3E0EFA04F438BF002318
:100D9000A14399400EFA03F39A43114300F00F0266
:100DA00000F160430901043A03F5644362440028FA
:100DB00048BF02F10C03197010BD00004EF60C5133
:100DC000CEF200010A684FF6FF031A4060F30A22D0
:100DD00042F0806040F0FD70086070472020C4F24F
:100DE0000E20012101607047012821D002280DD07A
:100DF000102808D141F20401C4F202010A6851F836
:100E0000040CC00134D40020704700BF80B500F04E
:100E1000DBF941F20401C4F2020109680222C1F3C4
:100E2000813102EB4101B0FBF1F0BDE88040704739
:100E300041F20400C4F20200C16940F202320A40E9
:100E4000B2F5817F04BF4FF40040704701F4407158
:100E5000B1F5407F18D0B1F5007F1CBF002070476E
:100E6000006A49F64041800701EAE070704700BF20
:100E7000C2F3834015A3185CD2030DD440F60012D0
:100E8000C0F23D02504313E050F8040C4FF22441ED
:100E9000800301EAE07070470A6810A3C2F3404281
:100EA0009A5C41F20023C0F27A03B3FBF2F25043A2
:100EB0000968490248BF70474AF6AB214000CAF6AC
:100EC000AA21A0FB01014808704700BF02030405E6
:100ED000060708090A0B0C0D0E0F10100102000086
:100EE0002DE9F04182B00446007841F21C06C007AB
:100EF000C4F202064AD030685FEAC00808D43068FD
:100F000040F080503060306800F0805001900198CF
:100F100047F20007C4F200073868C00512D43868E9
:100F200040F480703860FFF7C7FD05463868C0059B
:100F300008D4FFF7C1FD401B6428F7D9032002B095
:100F4000BDE8F081706810F4407012D0616801F45F
:100F5000407188420DD0706840F24042C4F2422293
:100F6000012320F4407113600023C00713607160F7
:100F700026D17068616820F440700843B8F1000F12
:100F8000706003D4306820F08050306020688107A2
:100F900007D556F8181CA26821F44041114346F8C1
:100FA000181CC00607D556F8180CE16820F480001C
:100FB000084346F8180C002002B0BDE8F08100BFDD
:100FC000FFF77AFD054641F2883700BF7068800759
:100FD000CFD4FFF771FD401BB8424FF00300F5D9A5
:100FE000EAE70000002804BF012070472DE9F04324
:100FF00081B042F20008C4F202080446D8F80000AA
:101000000D4600F0070088420CD2D8F8000020F00E
:1010100007002843C8F80000D8F8000000F00700D7
:10102000A8426CD1206841F204098107C4F2020988
:1010300017D5410705D5D9F8001041F4E061C9F88A
:101040000010010705D5D9F8001041F46051C9F826
:101050000010D9F80010A26821F0F0011143C9F87E
:101060000010C00742D1D8F8000000F00700A842E5
:101070000CD9D8F8000020F007002843C8F8000079
:10108000D8F8000000F00700A84238D120684107D6
:1010900007D5D9F80010E26821F4E0611143C9F8DE
:1010A0000010000708D5D9F80000216920F460502D
:1010B00040EAC100C9F80000D9F8002002F00C0095
:1010C000082841F20020C0F27A004DD144F2967314
:1010D000C2F38341C0F60003595CD20338D440F612
:1010E0000010C0F23D0048433EE000BF606859F880
:1010F000041C022808D0012826D1890306D4012027
:1011000001B0BDE8F08300BF8901F8D5D9F800101F
:1011100021F003010843C9F80000FFF7CDFC0646A3
:1011200041F28837D9F80000616800F00C00B0EB9C
:10113000810F98D0FFF7C0FC801BB842F2D9032082
:1011400001B0BDE8F08300BF8907D8D5DEE700BF56
:10115000D9F8002044F29473C2F34042C0F6000371
:101160009A5C4843B0FBF2F0D9F8001044F27C726C
:10117000C1F30311C0F60002515C40F20C0220FAE8
:1011800001F140F20800C2F200000068C2F2000261
:101190001160FFF7A1FD002001B0BDE8F083000061
:1011A00040F20C0041F20401C2F20000C4F202015C
:1011B0000068096844F28C72C1F30221C0F6000293
:1011C000515CC8407047000040F20C0041F204013D
:1011D000C2F20000C4F202010068096844F28C7295
:1011E000C1F3C221C0F60002515CC8407047000044
:1011F000002804BF012070472DE9F04182B0044669
:10120000007841F20006C007C4F202060CD07068F4
:1012100000F00C00042840F081803068800303D582
:101220006068002800F04681207880071BD5706830
:1012300010F00C0F09D0706800F00C00082840F086
:1012400087807068C00300F183803068800703D511
:101250002069012840F02E813068616920F0F80093
:1012600040EAC10030602078000713D4207840079E
:101270002CD4E569002D00F01881706800F00C0096
:10128000082840F0A780012D40F00481012002B021
:10129000BDE8F081A069002800F084800020C4F23D
:1012A00042200121C0F88014FFF706FC054600BF6C
:1012B000706A800700F1B280FFF7FEFB401B022836
:1012C000F6D9032002B0BDE8F08100BFF0695FEA03
:1012D000C00808D4F06940F08050F061F06900F077
:1012E00080500090009847F20007C4F20007386869
:1012F000C00549D4386840F480703860FFF7DCFBE3
:10130000054600BF3868C0053ED4FFF7D5FB401B3B
:101310006428F7D9032002B0BDE8F081706800F0BE
:101320000C00082803D17068C0033FF576AF6168F0
:101330003068002900F00C81B1F5A02F00F0008189
:10134000B1F5803F40F01A8140F480301CE100BFCD
:101350002069002840F20000C4F2422000F088809A
:1013600001210160FFF7A8FB054600BF3068800738
:101370003FF572AFFFF7A0FB401B0228F6D9032010
:1013800002B0BDE8F08100BFE168306A002900F0DA
:101390009D80052900F09280012940F0AF8040F047
:1013A0000100B1E00020C4F242200021C0F8801406
:1013B000FFF782FB054600BF706A80077FF556AFD6
:1013C000FFF77AFB401B0228F6D9032002B0BDE8E4
:1013D000F08100BF0027C4F2422700203866FFF7E3
:1013E0006BFB022D05460DD13068800140F1DE8097
:1013F000FFF762FB401B02284FF00300F4D902B054
:10140000BDE8F081306880014FD5FFF755FB401BE8
:1014100002284FF00300F5D9F1E700BF40F20C00BD
:10142000C2F20000006844F6D351C1F26201A0FB91
:101430000101480A019000BF00BF0198411E002829
:1014400001913FF413AF00BF0198411E00280191A4
:101450003FF40CAF00BF0198411E002801913FF4FA
:1014600005AF00BF0198411E00280191E4D1FDE6BF
:1014700000210160FFF720FB054600BF30688007B0
:101480007FF5F1AEFFF718FB401B02284FF0030079
:10149000F4D9B4E77068216A00F480328A4209D135
:1014A000616A00F47010884204D1002002B0BDE8E7
:1014B000F08100BF012002B0BDE8F08140F00400DF
:1014C0003062306A40F001001EE000BF20F00100F1
:1014D0003062306A20F004003062FFF7EDFA054612
:1014E00041F28837306A800720D5FFF7E5FA401BC4
:1014F000B8424FF00300F5D981E700BF20F00100AA
:101500003062306A20F004003062FFF7D5FA0546F9
:1015100041F28837306A800708D4FFF7CDFA401BC4
:10152000B842F7D9032002B0BDE8F081B8F1000F4E
:101530003FF59FAEF06920F08050F06199E600BF62
:1015400040F480203060306840F480301CE000BF00
:1015500020F480303060306820F480203060FFF765
:10156000ABFA0546306880037FF55EAEFFF7A4FA5C
:10157000401B64284FF00300F4D940E720F480308A
:101580003060306820F480203060FFF795FA05461F
:10159000306880033FF548AEFFF78EFA401B6428A1
:1015A000F6D9032002B0BDE8F08100BF206AB0F593
:1015B000803F05D17168A26821F400311143716048
:1015C0007168626A21F4741111430843706001204C
:1015D0003866FFF771FA0446306880013FF565AF61
:1015E000FFF76AFA001B02284FF00300F4D906E760
:1015F000002804BF0120704770B50446407C20B924
:1016000000202074204600F06BF8022060742068EF
:10161000416821F008014160FFF74EFA064600BF1D
:1016200020684568FFF748FA290705460ED4A81B2D
:10163000B0F57A7FF4D901200421617470BD00BF38
:10164000FFF73AFA401BB0F57A7FF4D82168486872
:101650008006F5D5486846F62C4240F010004860F8
:101660004868C4F2000220F007004860A06818B182
:10167000536823F001035360136823F46073184325
:1016800010606068421C05D10120FFF7ADFB18B364
:1016900021680138C0F3034280B28A60C86048689C
:1016A00020F010004860FFF707FA05462068406800
:1016B000800607D4FFF700FA401BB0F57A7FF5D912
:1016C000B9E700BF40F201110020A4F80D1001217C
:1016D000E073617470BD00BF04210120617470BDAE
:1016E000006842F60001C4F20001884218BF70474A
:1016F00080B582B0FFF772FB41F21C00C4F2020019
:10170000016841F0006101600068012100F00060A3
:101710000190019840F23C40C4F24220016002B0C6
:10172000BDE8804070470000F0B581B00446002855
:101730004FF0010018BF002902D101B0F0BD00BF79
:10174000207C01284FF00200F7D00123237460743D
:10175000CB78BAB1180900EB800003F00F0202EB5E
:10176000400348788A78070907EB870700F00F00E5
:1017700000EB4707100900EB800002F00F0202EBBC
:10178000400001E04F788878022FDAB2E373677384
:10179000A0730DD817237B434CF21D77C1F6714718
:1017A000A3FB073702F2CF7340F2D4760BE000BF01
:1017B00048F63E66FFB2C0F20206774302F5FA63CE
:1017C0003F0C40F2D276C0B21044304440F21F5574
:1017D00000EB93005D433844A0EB554000EBD5404F
:1017E00082B242F293435A43A0EB12439BB25B088E
:1017F00003EB12429208A2EBC20202442068227359
:101800000A708269C169876993B2BAB2934203D1FF
:10181000180489B203E000BFC069110480B2084314
:1018200045F69071C0F2010188424FF000061BD3CB
:1018300044F20751CCF22E21A0FB0112110C40F210
:10184000A3225143A0EBC117FFF736F9054600BFAD
:101850002068416889060DD4FFF72EF9401BB0F5CA
:101860007A7FF5D93AE000BF012100206174267427
:1018700001B0F0BD416841F010014160390C816157
:10188000B9B2C161416821F010014160FFF714F95C
:10189000054600BF20684168890607D4FFF70CF9A8
:1018A000401BB0F57A7FF5D918E000BF016A406AA5
:1018B00080B240EA0140B84234D200F5803000F5F1
:1018C000A347FFF7F9F805462068416889060BD45D
:1018D000FFF7F2F8401BB0F57A7FF5D9012004211B
:1018E0006174267401B0F0BD416841F0100141609F
:1018F000390C0162B9B24162416821F010014160C6
:10190000FFF7DAF805462068406880060AD4FFF73A
:10191000D3F8411B0120B1F57A7F4FF00401F2D9D1
:10192000A4E700BF002001216174267401B0F0BD5E
:1019300070B5044600284FF0010018BF002901D1FE
:1019400070BD00BF207C01284FF0020008BF70BDB1
:10195000012323746074087802B3020902EB820247
:1019600000F00F0000EB4200C0B24FF46162504340
:101970004A788978130903EB830302F00F0202EB24
:101980004302D2B2C2EB021200EB82000A0902EB60
:10199000820201F00F0101EB420108E04FF46162A5
:1019A00050434A788978C2EB021200EB8200C9B238
:1019B0004618FFF781F8054620684168890607D474
:1019C000FFF77AF8401BB0F57A7FF5D954E000BFF5
:1019D000416841F010014160310C8161B1B2C161D7
:1019E000416821F010014160FFF766F8054600BF2D
:1019F00020684168890607D4FFF75EF8401BB0F500
:101A00007A7FF5D938E000BF416821F005014160D7
:101A1000016A406A80B240EA0140B04232D200F529
:101A2000803000F5A346FFF747F805462068416877
:101A3000890607D4FFF740F8401BB0F57A7FF5D947
:101A40001AE000BF416841F010014160310C0162B1
:101A5000B1B24162416821F010014160FFF72CF8FA
:101A6000054600BF2068406880060BD4FFF724F8C5
:101A7000401BB0F57A7FF5D9012004216174002163
:101A8000217470BD0020012161740021217470BD9A
:101A900070B528B1416A29B100210161142106E025
:101AA000012070BD4168B1F5827F02D01C21002267
:101AB00042500026866290F8511029B980F8506093
:101AC000054600F039F82846022180F8511090E8C8
:101AD0002E0002F482720C6803F4044324F04004E4
:101AE0000C601A4405F4006305691A4405F002030A
:101AF00045691A4405F001038569C4691A4405F46F
:101B000000731A4404F03803046A1A4404F0800392
:101B1000846A1A4304F400531A430A60042202EA56
:101B200015424A60CA6922F40062CA610121466511
:101B300080F85110304670BD70B586B040F6000494
:101B4000C4F20104006804F520510026884205967D
:101B5000CDE90366029601D006B070BD41F21800CF
:101B6000C4F20200016802AD41F4805101600168D5
:101B700001F4805101910199016841F00401016073
:101B80000068294600F0040001900198A02002900E
:101B900002200390032005902046FEF777FE4020A8
:101BA000CDE90206204629460496FEF76FFE06B0F0
:101BB00070BD00002DE9F04383B01E4615460F4668
:101BC0000446FEF779FF94F851108146012909D1A6
:101BD000002F4FF0010018BF002D0FD103B0BDE85A
:101BE000F08300BF6068B0F5827F0DD104294FF00B
:101BF0000200F3D1A1680029EAD0EFE7002EEDD072
:101C000094F85000012803D1022003B0BDE8F0830E
:101C1000012084F8500094F85100002104281CBFD2
:101C2000052084F851006165A563E687A6872763D0
:101C3000E6862068A686216461640168490603D4AB
:101C4000016841F0400101606168731EE268B1FA09
:101C500081F1B3FA83F3DDF8288049095B09B2F515
:101C6000006F41EA030165D131B137F8021BC16051
:101C70002763E08E0138E086012518F1010032D19A
:101C800002E000BFFEF718FFE08E18B9E08F0028D1
:101C900000F0B8802068816889070CD5E18E51B1C9
:101CA000012D08D1216B002531F8022BC260216380
:101CB000E18E0139E1868168C907E3D0E18F00290F
:101CC000E0D0C068A16B012521F8020BA163E08F71
:101CD0000138E087D6E700BFFEF7EEFEA0EB090073
:101CE000404580F0AF80E08E18B9E08F002800F00A
:101CF00089802068816889070CD5E18E51B1012D5A
:101D000008D1216B002531F8022BC2602163E18EDE
:101D10000139E1868168C907DED0E18F0029DBD077
:101D2000C068A16B012521F8020BA163E08F013887
:101D3000E087D1E739B139780173206B0130206336
:101D4000E08E0138E086012518F1010032D101E072
:101D5000FEF7B2FEE08E10B9E08F002852D0206866
:101D6000816889070ED5E18E61B1012D0AD1216B01
:101D7000002509780173216B206801312163E18E10
:101D80000139E1868168C907E2D0E18F0029DFD0FF
:101D9000C068A16B01250870A06B0130A063E08FC3
:101DA0000138E087D4E700BFFEF786FEA0EB09000C
:101DB000404547D2E08E08B9E08F18B320688168AB
:101DC00089070ED5E18E61B1012D0AD1216B002565
:101DD00009780173216B206801312163E18E01399B
:101DE000E1868168C907DFD0E18F0029DCD0C068B7
:101DF000A16B01250870A06B0130A063E08F013852
:101E0000E087D1E72046022101224346CDF8009029
:101E100001F010F940B92046802100224346CDF858
:101E2000009001F007F9B8B1606D40F020006065E6
:101E300020206065002084F85000012003B0BDE838
:101E4000F08300BF012084F85100002084F8500086
:101E5000032003B0BDE8F083A06838B900200290E9
:101E60002068C1680291806802900298012084F87D
:101E70005100002084F85000606D002818BF012038
:101E800003B0BDE8F0830000411E0020B0EB116FED
:101E90001CBF012070474EF21002CEF200025160CA
:101EA0004EF62351CEF20001F0230B700721906013
:101EB00011607047002804BF0120704710B5044628
:101EC00090F8410028B9002084F84000204600F036
:101ED00063F8242084F841002068D4E90212C36822
:101EE00023F40053C360036923F440531A4302618F
:101EF000D4E904231143C268194341F20C639A43A5
:101F00001143C1604169A26921F44071114343F654
:101F10000002C4F201029042416103D0FFF740F990
:101F200002E000BFFFF750F9D4E90023192148432C
:101F30009900B0FBF1F048F21F5CC5F2EB1CA0FB6E
:101F40000C314FF69C734909C0F6FF7301FB030087
:101F5000322303EB0010A0FB0C03F02000EA531027
:101F600000EB0110C3F34311084490601069202175
:101F700020F490401061506920F02A005061D06830
:101F800040F40050D0600020606484F8411084F870
:101F90004210606310BD000070B586B040F60004CA
:101FA000C4F20104006804F54051002688420596F9
:101FB000CDE90366029601D006B070BD41F218006B
:101FC000C4F20200016802AD41F480410160016881
:101FD00001F4804101910199016841F0040101601F
:101FE0000068294600F00400019001984FF4007049
:101FF000029002200390032005902046FEF746FC45
:102000004FF48060CDE90206204629460496FEF78B
:102010003DFC06B070BD00002DE9F04381B00446E0
:1020200090F84100202809D100294FF0010018BF85
:10203000002A07D101B0BDE8F08300BF022001B043
:10204000BDE8F0830020606421201D460E4684F820
:1020500041001746FEF730FDA784E784A16881465A
:10206000B1F5805F02D1206900285DD0374600209D
:10207000E28C2168002A5DD06A1C24D0002D4AD051
:10208000804600BF0868000608D4FEF715FDA0EBE7
:102090000900A8427AD82168C868F3E717B117F891
:1020A000010B04E038F8020B00276FF35F20486053
:1020B000E08C0138E084E08C0028E3D13AE000BFF6
:1020C0000A68120609D40A68120606D40A681206BB
:1020D0005CBF0A685FEA0262F2D51FB117F8012BF4
:1020E00005E000BF30F8022B00276FF35F224A6043
:1020F000E28C013AE284E28C002AE4D11AE000BFCB
:1021000030F8022B00276FF35F224A60E28C013A1D
:10211000E284E28C72B10A68120635D5002FEFD046
:1021200017F8012BF1E700BF00273046E28C216849
:10213000002AA1D1086840061ED42DB3681C14D112
:10214000086840062AD40868400627D40868400674
:1021500024D4086840064FF00000F1D50DE000BF20
:102160002068C1680068400618D4FEF7A5FCA0EB03
:102170000900A842F4D909E00020202184F8411088
:1021800001B0BDE8F08300BFFEF796FC03202021DC
:1021900084F8411001B0BDE8F08300BF0020202189
:1021A00084F8411001B0BDE8F0830000FEE70000B4
:1021B000FEE70000FEE7000070470000142882BF21
:1021C00044F60900C0F60000704744F22871C0F6DA
:1021D000000151F82000704758B10A46016841B12A
:1021E000416831B1816821B18189002918BF002A75
:1021F00002D10A20704700BFC1890029F9D03721D8
:10220000012302F013B90000002871D001680029F1
:102210006ED04268002A6BD08168002968D081891D
:10222000002965D0C389002B62D02DE9F04F85B01D
:102230000769002380F82E30002F838504BF142304
:10224000036143690446002B04BF32234361836961
:10225000002B04BF4FF49673836110460122FEF7F2
:1022600025FCA068E18900220025FEF71FFC022062
:10227000FEF7F8FAA068E1890122FEF717FC322088
:10228000FEF7F0FA2068ADF80850002800F0A680AC
:1022900060682246002800F0A1809168002900F0C3
:1022A0009D809189002900F09980D389002B00F04E
:1022B000958040F6027315460022ADF80A304FF0C3
:1022C000000BFEF7F3FB28682E690DF10A0102AA44
:1022D00002230096FFF76EFC6A68A989054610463E
:1022E0000122FEF7E3FB2DB1042005B0BDE8F08F1D
:1022F0000A2070473220FEF7B5FAFEF7DDFB0546EF
:102300004FF0820A0DF10E080DF10C092068ADF8AE
:102310000CB0002862D06068224600285ED0916828
:1023200000295BD09189002958D0D389002B55D042
:1023300016460022ADF80EA0FEF7B8FB30683769EC
:1023400041464A4602230097FFF734FC7268B18980
:10235000064610460122FEF7A9FB002EC4D19DF8C7
:102360000D00C00608D5FEF7A7FB401B63284FF001
:102370000300CBD933E000BF20680021ADF8101076
:1023800060B36068224648B3916839B3918929B334
:10239000D3891BB3EE2315460022ADF81230FEF7A9
:1023A00085FB28682F690DF1120104AA022300970A
:1023B000FFF700FC6A68A989054610460122FEF76E
:1023C00075FB002D7FF490AF9DF811000130C0B275
:1023D000022807D20B2005B0BDE8F08F0A2005B017
:1023E000BDE8F08F20461221002202F03FF90028BC
:1023F000F5D120461321002202F038F90028EED151
:1024000020462421262202F031F90028E7D1204677
:102410002A21802202F02AF90028E0D120462B212F
:10242000A92202F023F90028D9D120462C21032229
:1024300002F01CF90028D2D120462D21E82202F01A
:1024400015F90028CBD120461521402202F00EF9C3
:102450000028C4D1204611213D2202F007F90028AE
:10246000BDD120461421032202F0E6F80028B6D19F
:1024700020462621702202F0F9F80028AFD120462C
:102480001521402202F0F2F80028A8D10520FEF71D
:10249000E9F9012084F82E00002005B0BDE8F08F96
:1024A00030B3026822B3426812B3826802B38289F1
:1024B000F2B1C289E2B1024600294FF00A0000F0F1
:1024C0008B8092F82E30002B08BF7047F0B589B092
:1024D0000E4604A91046154600F086F80446FEF79D
:1024E000EBFA012C06D195F82D1079B1A96A12E00A
:1024F0000A207047274620460021284685F82D10DF
:1025000097B101F0CBFD384663E000BF012185F8AB
:102510002D100146A862AA69401A904224BF0020EB
:1025200085F82C00012054E001680A24002947D0D6
:102530004168002944D08168002941D0818900295F
:102540003ED0C189E1B390F82E10C9B35021CCF62A
:102550005751089102218DF81D100DF11D010DF14B
:102560001E02002307AFCDE90032029108AA0C2118
:102570000423039700F040FF80B303282FD106996E
:10258000DDE90402B1607260306095F82C002946E4
:1025900058B19DF81A2091F82600824205D11C31CD
:1025A00004A8FDF7A5FF2946E0B104AB0DCB01F16E
:1025B0001C0C8CE80D00012081F82C00002008E0A4
:1025C0000A2640F27001C2F200010C7001F066FDB3
:1025D000304609B0BDE8F040704700BF0520064610
:1025E0002846EEE70220F4E72DE9F04F8FB040F2E5
:1025F0007006C2F20006002232707270B270F27081
:1026000032717271B27160B1026852B1426842B106
:10261000826832B1828922B1C289002A18BF00299A
:1026200006D1012030700A200FB0BDE8F08F00BF46
:1026300090F82E20002AF4D00D4600210D91CDE90E
:102640000B11044600F090FC10B10FB0BDE8F08F04
:10265000022030700DF122022046262101F048FFB1
:10266000032804D0052808D1707801280AD80DF174
:1026700022022046522101F03BFF78B1032805D009
:102680000528E2D17078012800F22681204601F069
:1026900005FD01200FB0BDE8F08F00BF03203070B2
:1026A000206800210028ADF82610BCD060682246C2
:1026B0000028B8D091680029B5D091890029B2D0FE
:1026C000D389002BAFD09C2317460022ADF81930D8
:1026D000FEF7ECF93868D7F810C00DF119010DF1CB
:1026E00026020223CDF800C0FFF764FA7A68B989A0
:1026F000074610460122FEF7D9F91FB104200FB09A
:10270000BDE8F08F9DF827000E2100F07F022046E3
:1027100001F0ACFF002898D10DF1190002300590AE
:102720004FF000084FF0000B932000EB4B0A2020E5
:102730008DF81A00059800210160C0F803100420EC
:102740008DF819A0307005208DF825000DF12600B8
:1027500001900DF125008DF8241000910290204683
:102760000C210DF11902022309AF039700F044FE7A
:10277000002840F0BB809DF82500052840F014811A
:102780009DF82400002840F00F81052030709DF84E
:1027900027009DF828109DF829209DF82690484094
:1027A000504080EA09009DF82A10C0B2884240F0EB
:1027B0002D8120460E21802201F03EFFBBF1020F49
:1027C00008BFB9F1880F00F02681002840F088800A
:1027D00020460D21002201F049FF002840F08080B2
:1027E00070208DF81A00DDF826009DF82A10059A51
:1027F0000DF1190710601171384607218DF819A0E5
:1028000000F0B0FC0620307003208DF82500002079
:102810008DF8240000900DF1260001900DF12500A7
:10282000029020460C213A46092309AF039700F095
:10283000E3FD002854D19DF825000527032850D139
:102840009DF8240000284CD10DF12600032100F052
:1028500033FD002800F0E48007213170A9F18800E1
:102860009DF826A0B0FA80F041090AF00400012288
:1028700082EA9000814200F0CE800427B9F1880FEF
:1028800008BF032708EB0700C0B20A2800F2C38084
:102890005FFA88F00BAA1044059A11443A46FDF7F6
:1028A00072FE9DF83600B9F1880F00EB07088DF82D
:1028B000368040F0B98020460E21802200F0E2FCF4
:1028C00070B9BBF1010F0BF1010B7FF62DAF204664
:1028D0000E21802201F0B0FE05200FB0BDE8F08F80
:1028E000074638460FB0BDE8F08F00BF07462068A6
:1028F00000210028ADF83810F3D060680028F0D02F
:10290000A1680029EDD0A1890029EAD0E289002A36
:10291000E7D09C22ADF83A2000224FF00008FEF7E5
:10292000C5F8206826690DF13A010EAA0223254652
:102930000096FFF73FF96268A1890546104601221B
:10294000FEF7B4F8002DCCD120689DF8392000287E
:10295000ADF83880C5D060680028C2D0A1680029D1
:10296000BFD0A1890029BCD0E389002BB9D062F087
:102970007F021C238DF83B2000228DF83A30FEF7B1
:1029800095F8206826690DF13A010EAA02230096F7
:10299000FFF710F96068A1890122FEF787F8384631
:1029A0000FB0BDE8F08F00BF20680021ADF83810EF
:1029B00088B3606878B3A16869B3A18959B3E28923
:1029C0004AB39C22ADF83A200022FEF76FF8206847
:1029D00027690DF13A010EAA022325460097FFF759
:1029E000E9F86268A189054610460122FEF75EF803
:1029F0008DB99DF839000E2140F08002204601F08B
:102A000035FE05200FB0BDE8F08F00BF20460E2137
:102A1000802201F011FE05200FB0BDE8F08F00BF4D
:102A200007200FB0BDE8F08FDDE90B018DF837A06E
:102A300028600D986960A8601420307000200FB0E5
:102A4000BDE8F08F002947D00022CA600A834A619E
:102A50000A618A604A600A604FF6FF728A81D8B3C1
:102A60000268CAB34268BAB38368ABB383899BB3C5
:102A70002DE9F04F83B0C78987B390F82E708FB3DC
:102A80008B4602210026ADF80A100546104619466D
:102A90000022ADF80860FEF709F828682F690DF1EB
:102AA0000A0102AA02230097FFF784F86A68A9893D
:102AB0002C46054610460122FDF7F8FFB5B1BBF8DC
:102AC0000A005E4601300423ABF80A000020ADF88E
:102AD000080022469BE000BF0A2070470A2003B08E
:102AE000BDE8F08F0A2003B0BDE8F08F20682246D1
:102AF0000028ADF8086000F085805068002800F0DC
:102B000081809168002900F07D809189002979D029
:102B1000D389002B76D04FF0EE0915460022ADF890
:102B20000A904FF0000AFDF7C1FF28682F690DF1E8
:102B30000A0102AA02230097FFF73CF86A68A989F4
:102B4000054610460122FDF7B1FF4DB1BBF80A0062
:102B50005E460130ABF80A00ADF808A00423B8E7E0
:102B60009DF80900BBF800208DF807008BF81000D5
:102B70008BF81100501CABF8000001200126FDF776
:102B800071FE0DF108080BE002884174511C0180B0
:102B90000120FDF767FE632E06F1010680F0B2808A
:102BA00020682246ADF808A060B3506850B3916821
:102BB00041B3918931B3D38923B317460022ADF8CD
:102BC0000A90FDF773FF38683D690DF10A0142462E
:102BD00002230095FEF7EEFF7A68B9890746104692
:102BE0000122FDF763FF002FB0D19DF809109BF87B
:102BF0001020584691428DF80710C5D04288013206
:102C00004280C1E70A230020ADF808005E46106844
:102C100090B3506880B3916871B3918961B3D789DB
:102C200057B39846022315460022ADF80A30002714
:102C3000FDF73CFF28682E690DF10A0102AA022364
:102C40000096FEF7B7FF6A68A9890546104601227B
:102C5000FDF72CFF002D47D0BBF80A005E4601307F
:102C6000ABF80A008BF81870ADF8087004272246FC
:102C7000106840B940E000BF00200A273076ADF868
:102C800008001068C0B35068B0B39168A1B39189CF
:102C900091B3D38983B348F2140314460022ADF8EC
:102CA0000A30FDF703FF206826690DF10A0102AA28
:102CB00002230096FEF77EFF6268A1890446104653
:102CC0000122FDF7F3FE3846002C3FF408AFBBF8B5
:102CD0000A005E460130ABF80A000420002131767C
:102CE00003B0BDE8F08F00BFADF808705E46224625
:102CF000474610680028C6D10A200021317603B06B
:102D0000BDE8F08F0BF1120220461221012301F0E1
:102D10008DFB04283FF4D3AE034600285E467FF4C3
:102D2000D5AE06F1130220461321012301F07EFBEC
:102D300004283FF4C4AE034600285E467FF4C6AEC6
:102D400006F1140220461521012301F06FFB04282F
:102D50003FF4B5AE034600285E467FF4B7AE06F1F9
:102D6000150220461421012301F060FB04283FF4E2
:102D7000A6AE034600285E467FF4A8AE06F1160212
:102D800020461121012301F051FB04283FF497AEA6
:102D9000034600285E467FF499AE06F117022046EE
:102DA0000D21012301F042FB04283FF488AE0346C5
:102DB00000285E467FF48AAE4FF000080DF1070947
:102DC00020460A21802201F051FC002840F0928028
:102DD00020460A214A46012301F028FB002840F042
:102DE00089809DF8070028B1BBF8081058460131CA
:102DF000ABF808104FEA88160027B819C2B220466F
:102E0000092101F033FC002868D1B8B201373F280E
:102E1000F3D320460A214A46012301F007FB00288C
:102E200068D19DF80700402805D0BBF80810584627
:102E30000131ABF80810002707E000BF501CABF8C9
:102E40000600B8B201373F2820D2204609214A4661
:102E5000012301F0EBFA00284CD1BBF80410B8199B
:102E60004B1C9DF8071085B28D425A46ABF80430D2
:102E7000E7D0BBF80620002AE0D15B46ABF80C0097
:102E80008BF80E008BF80F10D8E700BF20460A2100
:102E90004A46012301F0CAFA60BB9DF8070028B139
:102EA000BBF8081058460131ABF808101FFA88F03B
:102EB00008F101080328FFF483AFBBF802100122D8
:102EC00058468BF8182029B9BBF8060010B9BBF892
:102ED0000800E8B10523224695E600BF0346042812
:102EE0001ED1BBF80A1058460131ABF80A10042372
:102EF000224688E60346042822467FF484AEBBF8C7
:102F00000A10042301315846ABF80A107BE600BFD3
:102F10009BF8100000230130C0B2022838BF0B23F9
:102F2000224670E60B2899BF03A151F8200044F611
:102F30000900C0F600007047F3470008AF470008DB
:102F4000CC47000868480008494800083A4800088B
:102F5000FF470008184800082F480008EE470008FF
:102F6000D64700082248000870B3016861B3426880
:102F700052B3816841B3818931B3C38923B390F8D7
:102F80002E300BB370B584B0002590230446104654
:102F90000022ADF80C50ADF80E30FDF787FD20682B
:102FA00026690DF10E0103AA02230096FEF702FE28
:102FB0006268A1892646044610460122FDF776FD87
:102FC00024B1042004B070BD0A20704730689DF819
:102FD0000D30ADF8085048B37068324630B3916890
:102FE00021B3918911B3D68906B323F008031026C3
:102FF000154600228DF80A608DF80B30FDF756FD5E
:1030000028682E690DF10A0102AA02230096FEF734
:10301000D1FD044600286868A9894FF0010218BF55
:103020000124FDF743FDA00004B070BD0A2004B0E8
:1030300070BD00002DE9F04381B0089C984615460C
:103040000E468146FDF738FD201A00EB0804FDF717
:1030500033FD40F20C01C2F200010968C1F3CB312B
:1030600061430091D9F800108A683240921BB2FA8D
:1030700082F25209AA423DD0074618F1010031D030
:10308000FDF71AFDC01BA04238D200980099002815
:10309000A1F101010091D9F80010896808BF044628
:1030A00001EA0600801BB0FA80F04009A842E7D18F
:1030B00020E000BF88683040801BB0FA80F04009F3
:1030C000A84217D088683040801BB0FA80F04009D1
:1030D000A8420FD088683040801BB0FA80F04009C9
:1030E000A84207D088683040801BB0FA80F04009C1
:1030F000A842DFD1002001B0BDE8F083D9E900018A
:103100004268B1F5827F22F0E00242600BD1D9F82B
:103110000810B1F5004F02D0B1F5806F03D10168FE
:1031200021F040010160D9F82810B1F5005F07D106
:10313000016821F400510160016841F4005101600F
:10314000012089F85100002089F85000032001B0C7
:10315000BDE8F08370470000FDF79CBD704700009C
:10316000FEE700002DE9F04341B1042901F0030C12
:103170000CD246F2633203464BE000BF6322632366
:10318000471842547B70BDE8F08300BF01F0FC0E8D
:10319000002446F26332034613F8045B96B26A4099
:1031A00082EA0212D2B2150245EA1625D60013F8B9
:1031B000037C86EA12126A4087EA020585EA051551
:1031C000EDB22E0246EA1222EE0013F8028C86EAD5
:1031D00015156A4088EA020585EA0515EDB22E024A
:1031E00046EA1222EE0013F8019C86EA15156A40A1
:1031F00089EA020585EA0515EDB22E0246EA122299
:10320000EE00043486EA1515E6B2764582EA050238
:10321000C2D1BCF1000F2FD01F7896B27A4082EA5B
:103220000212D2B2170247EA1627D60086EA121215
:10323000BCF1010F82EA07021ED05F78BCF1020FD9
:1032400087EA020787EA0717FFB24FEA072646EA2E
:1032500012224FEAC70686EA171782EA07020BD046
:103260009B78534083EA0313DBB21F0247EA122222
:10327000DF0087EA13135A40130A471842547B7041
:10328000BDE8F08370B582B016460DF10702012348
:103290000C46054601F0CAF810B102B070BD00BF7F
:1032A0009DF807002146B0438DF80700C2B22846BA
:1032B00001F0DCF902B070BD0229C0F09B802DE95D
:1032C000F047A1F1020E5FEA0E6209D0CA1E032A7E
:1032D0000EF0030C08D246F26332034646E000BF0C
:1032E00046F2633275E000BF0EF0FC08002546F29E
:1032F0006332034613F8046B97B2724082EA0212FB
:10330000D2B2160246EA1726D70013F8034C87EA12
:1033100012127240544084EA0414E4B2260246EACF
:103320001222E60013F8029C86EA1414624089EA2D
:10333000020484EA0414E4B2260246EA1222E600F9
:1033400013F801AC86EA141462408AEA020484EAA3
:103350000414E4B2260246EA1222E600043586EAA4
:103360001414EEB2464582EA0402C3D1BCF1000F48
:103370002FD01C7895B2624082EA0212D2B21402B7
:1033800044EA1524D50085EA1212BCF1010F82EA45
:1033900004021ED05C78BCF1020F84EA020484EAC5
:1033A0000414E4B24FEA042545EA12224FEAC405A8
:1033B00085EA141482EA04020BD09B78534083EA16
:1033C0000313DBB21F0247EA1222DF0087EA13135E
:1033D0005A4010F80E30D7B2BB42BDE8F04709D1D1
:1033E000084410F8010C91B2A0EB1120B0FA80F063
:1033F00040097047002070472DE9F04F87B0DDE9A4
:10340000129B4FF00008B9F1000F8DF817808DF86E
:1034100016808DF815808DF8148004D099F800502E
:1034200089F80080A846BBF1000F1CBF00278BF86D
:10343000007040F2700AC2F2000A00278AF8017098
:103440008AF802708AF80370002A8AF8047014BFA0
:103450001678002600288AF805608AF8067000F0C1
:1034600017810768002F00F013814768002F00F0D4
:103470000F818668002E00F00B818689002E00F0F7
:10348000078104464FF00A007AB101F0FD050C2DCA
:103490000BD1E5894DB111980C290CD100284FF0C2
:1034A0000A0018BF5FEA086502D107B0BDE8F08FD7
:1034B000B9F1000FF9D002A80EC002200025ADF826
:1034C0001A00384631460022ADF81850FDF7EEFAE2
:1034D000206827690DF11A0106AA02230097FEF75A
:1034E00069FB6268A1890646104601222746FDF75E
:1034F000DDFA1EB1042007B0BDE8F08F3868ADF8E2
:103500001850002800F0C48078683A46002800F07F
:10351000BF809168002900F0BB809189002900F0EC
:10352000B780D389002B00F0B38047F608731546A7
:103530000022ADF81A300024FDF7B8FA28682E6989
:103540000DF11A0106AA02230096FEF733FB6A6802
:10355000A989064610460122FDF7A8FA002EC9D116
:103560003868ADF81840002800F0928078683A4634
:10357000002800F08D809168002900F089809189F1
:10358000002900F08580D289002A00F0818048F26D
:103590001402ADF81A200022FDF788FA38683E6957
:1035A0000DF11A0106AA02233C460096FEF702FB23
:1035B0007A68B989064610460122FDF777FA002E8F
:1035C00098D138460D21002201F050F804990028C6
:1035D0007FF46BAFA9B300250398396810F8012B6D
:1035E00000290390ADF8185052D0786800284FD0C9
:1035F000B96800294CD0B989002949D0FB89002B32
:1036000046D012238DF81B2000228DF81A30FDF7CA
:103610004DFA38683E690DF11A0106AA02233C46AC
:103620000096FEF7C7FA7A68B98906461046012265
:10363000FDF73CFA002E7FF45DAF0498013804904A
:10364000CAD110980D2100F00702384601F00EF89B
:1036500000287FF42AAF029A3846012101F006F8CB
:10366000029900287FF421AF0C2915D138460D218D
:10367000802200F0E1FF00284AD0044638460121AC
:10368000002200F0F3FF204607B0BDE8F08F00BF36
:103690000A2007B0BDE8F08FFDF70EFA0299054643
:1036A0000E391DD1B1FA81F04409FDF705FA7969A7
:1036B000401B884212D2384604210DF11702012323
:1036C00000F0B4FE002849D19DF81700C1068AF821
:1036D00003005CD4810757D4C007E6D0032657E027
:1036E0000DF11704FDF7E8F97969401B88422BD2E8
:1036F000384604212246012300F098FE40BB9DF885
:10370000170081078AF803003AD4C007EAD01BE00B
:10371000FDF7D2F904460DF11705FDF7CDF97969EA
:10372000001B884210D2384604212A46012300F0AB
:103730007DFE68B99DF8170081068AF8030025D43C
:1037400081071DD4C007E8D00326002420E000BF75
:103750000646042805D000241AE000BF06460428C7
:1037600016D138460121002200F080FF38460D2195
:103770008022FFF787FD042007B0BDE8F08F00BF6F
:103780000526002404E000BF052601E000240026F1
:103790000DF1160238460621012300F047FE0546CA
:1037A00080B90DF1150238460A21012300F03EFED2
:1037B000054638B905AA38460C21012300F036FE2B
:1037C000054668B138460121002200F04FFF384617
:1037D0000D218022FFF756FD284607B0BDE8F08F87
:1037E0009DF81610B9F1000F8AF804109DF8150025
:1037F0004FF001038AF801009DF8142002F007023F
:103800008AF802208AF8063018BF89F80000BBF158
:10381000000F18BF8BF80020029A0C2A0CD1052E3D
:1038200000D0B6B90A0711D44A0711D411F0130F0A
:103830001ED005260DE000BFF6B13846012100225A
:1038400000F014FF304607B0BDE8F08F062600E018
:10385000072638460121002200F008FF38460D21D6
:103860008022FFF70FFD304607B0BDE8F08F00BFA4
:103870003F293FD8002EECD144B138460121002227
:1038800000F0F4FE07B0BDE8F08F00BF0138C0B211
:103890005FFA88F188421FD2002411980921021989
:1038A0003846012300F0C2FD00287FF4FEAD9DF8EC
:1038B000150001348442F0D338460121002200F083
:1038C000D5FE00287FF4F1AD38460D218022FFF7A8
:1038D000D9FC07B0BDE8F08F38460121002200F086
:1038E000C5FE38460D218022FFF7CCFC052007B02D
:1038F000BDE8F08F0B26ACE7DEB0FDF7D9F92BACB5
:10390000201D2421FCF784FE0A202B900120102189
:1039100000252F90CDE930102046CDE90C55329589
:10392000FDF766FC20B1EFF3108072B6FEE700BF32
:103930000F20CDE9110511A80021CDE913551595EA
:10394000FDF750FB20B1EFF3108072B6FEE700BF29
:1039500001274FF400750AA80A970B95FDF7C0FAE6
:1039600020B1EFF3108072B6FEE700BF002441F2F1
:103970001800CDE92D44CDE92B44C4F202000168C2
:1039800041F2000B41F0100101600168C4F2010B2B
:1039900001F01001119111990168002241F0040118
:1039A000016001684FF4005601F004011191119972
:1039B000016841F00801016000684FF4005100F017
:1039C0000800119011985846FDF770F8ABF50069A2
:1039D000484610210122FDF769F8ABF580684046A2
:1039E00001210122FDF762F840464FF4E041002238
:1039F000FDF75CF8CDE92B672BAE4FF0020A584675
:103A000031462D94CDF8B8A0FCF740FF07202BA934
:103A100091C148463146FCF739FF1020CDE92B070C
:103A200048463146CDE92D4AFCF730FF47F2010008
:103A3000CDE92B07404631465F46CDE92D4AFCF7DC
:103A400025FF40F2A0160BF50050C2F200064FF41D
:103A5000827186E813001020F0610A20C6E90A404E
:103A60003046C6E90344C6E90545C6E90844FEF701
:103A70000FF828B1EFF3108072B600BFFEE700BF69
:103A800040F2780007F52051C2F2000040F8301FE4
:103A90004FF4E1310C22C0E90114C0E90344C0E94C
:103AA0000524C461FEF706FA20B1EFF3108072B668
:103AB000FEE700BF40F24C10A7F53C41C2F2000007
:103AC00048F2A06200244FF48043C0F2010280E873
:103AD0001600C0E90343C0E90544C0E90744FCF708
:103AE000F1FF28B1EFF3108072B600BFFEE700BF10
:103AF00040F2011040F2F00BC0F20100C2F2000BE4
:103B00002B90A7F56841584640F82C1F4FF0FF3125
:103B1000C0E90114FDF76CFD20B1EFF3108072B61F
:103B2000FEE700BF00200BF12C05ADF844008DF836
:103B3000460011A928460122FDF7FAFE20B1EFF355
:103B4000108072B6FEE700BF2BA928460122FDF7C0
:103B5000EBFD28B1EFF3108072B600BFFEE700BFA7
:103B600038464FF400510122FCF7A0FF102040F22C
:103B70007805C0F20100C2F200051421C5E90280F7
:103B800005F1100032224FF496730EC02846C5E9A5
:103B90000069FEF739FB40F2000AC2F2000A8AF817
:103BA000000000208DF8AB000DF1AB012846FEF7B8
:103BB00013FB9DF8AB1081468BF800109AF80010AB
:103BC0000846FFF7AFF906464846FFF7ABF99DF800
:103BD000AB400DF1440807460FF2304240466421E5
:103BE0003346CDE90074FCF70FFB4046FCF7ACFC14
:103BF00005F1300482B2204641466423FEF70CFAF8
:103C00009AF8000040EA0900000619D09AF800006E
:103C100028B140F20000C2F2000090F8009041F29A
:103C20000004C4F201048BF8019000BF20464FF459
:103C30000051FCF733FF9620FCF714FEF6E700BFB7
:103C40000AA92846FEF7FEFE0E990F9A0A9B0B9FC3
:103C50000C9E0D9DCBF84030CBF85420CBF8501083
:103C6000CBF84C50CBF84860CBF84470BDF840100E
:103C70000546ABF858108AF80200FFF753F9BDF873
:103C80002A10BDF83070BDF82E20BDF832608DE8E6
:103C9000860011AF0346E7A2384664210396FCF77D
:103CA000B3FA3846FCF750FC82B22046394664230A
:103CB0000894FEF7B1F96DB141F20004C4F20104B9
:103CC00020464FF40051FCF7E9FE9620FCF7CAFDB0
:103CD000F6E700BF41F2000AC4F2010A50464FF471
:103CE00000510022FCF7E2FE7820FCF7BBFD5046B5
:103CF0004FF400510122FCF7D9FE7820FCF7B2FD09
:103D000050464FF400510022FCF7D0FE7820FCF71B
:103D1000A9FD50464FF400510122FCF7C7FE782060
:103D2000FCF7A0FD0898D2A11A226423FEF774F9CB
:103D300040F2780440F20008C2F200040DF1AC0930
:103D4000C2F2000803E000BF0120FCF78BFDFCF786
:103D5000B3FE9BF80910D9B10646DBF81000301A03
:103D600016D450464FF40051FCF798FE9BF809001A
:103D7000DBF8141001388BF8090031440006CBF849
:103D8000101005D150464FF400510122FCF78EFE71
:103D9000FCF792FEDBF81810411A1E29C0F00F81C3
:103DA0005BAFCBF8180020463946FEF779FB0028B8
:103DB00088F8010000F0AA8006460338C0B2FD284A
:103DC00000F2FD8040F270008BF80160C2F200004A
:103DD00000788BF8020040F27500C2F20000007813
:103DE0008BF8030040F27300C2F2000000788BF8F9
:103DF000040040F27400C2F2000000788BF8050065
:103E000040F27100C2F2000000788BF8060040F228
:103E10007200C2F2000000788BF8070040F27600D2
:103E2000C2F2000000788BF80800FCF745FE9BF812
:103E30000A100246012907D1DBF81C0040F2DC51D0
:103E4000101A8842C0F0BB8044F6DF0444F6C70075
:103E5000C0F60004C0F60000062E08BF0446304637
:103E60000992FFF75FF89BF8021080460846FEF7BC
:103E7000A5F99BF803109BF804209BF805309BF8EC
:103E800006509BF807709BF808C0CDE9004002A8D7
:103E9000AEC044F6700240F2780441F2000A2BA84A
:103EA000C021C0F60002434640F20008C2F20004FE
:103EB000C4F2010AC2F200080DF1AC09CDF81CC031
:103EC000FCF7A2F94846FCF73FFB82B20898494646
:103ED0006423FEF7A1F850464FF400510022FCF78E
:103EE000E5FD0520062E08BF03208BF80900782089
:103EF000CBF81400FCF7E0FD7830CBF8100001207F
:103F00008BF80A000998CBF81C0058E05B985C9984
:103F10005D9ACBF82820CBF82410CBF82000DBF8F2
:103F20000C000130CBF80C009DF8763100200A2BF4
:103F30008BF80A0030D84846402154A2FCF764F9B7
:103F40009DF87611064699B144F6C1050024C0F6E5
:103F5000000500BF3B5D09EB0600C6F140012A46A3
:103F6000FCF752F99DF8761101348C420644F1D3E6
:103F700009EB0600C6F1400147A2FCF745F94846A7
:103F8000FCF7E2FA82B2089849466423FEF744F847
:103F900040F27804C2F2000450464FF4005100226F
:103FA000FCF784FD01208BF809004FF47A70CBF800
:103FB0001400FCF781FD00F57A70CBF81000FCF7D7
:103FC0007BFD9BF8091000293FF4BEAE0646DBF8E6
:103FD0001000301A3FF5B8AE50464FF40051FCF7D0
:103FE0005DFD9BF80900DBF8141001388BF809001F
:103FF00031440006CBF810107FF4A6AE50464FF4C3
:1040000000510122FCF752FD9EE600BF494E495483
:104010003D25732056455253494F4E5F524541440A
:104020003D25732056455253494F4E3D2530325859
:104030000D0A00005350493D2573205645525349FF
:104040004F4E5F4348414E4745533D2575204649F5
:10405000464F5F4241443D2575204C4556454C5FD7
:104060004241443D257520494F3D25750D0A00000C
:1040700052454144593A2070726573656E74206FE1
:104080006E6520636172642E0D0A00005549442854
:104090002575293A200000000D0A0000F0B583B014
:1040A0000021ADF8081020B3016811B3426802B3D3
:1040B0008168F1B18189E1B1C389D3B10223054699
:1040C00010460022ADF80A300026FCF7EFFC286805
:1040D0002C690DF10A0102AA02230094FDF76AFD82
:1040E0006A68A9892C46054610460122FCF7DEFCC9
:1040F00015B103B0F0BD00BF2068ADF8086000281E
:10410000F7D0606822460028F3D091680029F0D0EB
:1041100091890029EDD0D389002BEAD09A23154646
:104120000022ADF80A300027FCF7C0FC28682E6991
:104130000DF10A0102AA02230096FDF73BFD6A6811
:10414000A989054610460122FCF7B0FC002DD0D10C
:1041500020689DF809200028ADF80870C9D0606873
:1041600023460028C5D099680029C2D09989002922
:10417000BFD0DB89002BBCD002F07F021A238DF860
:104180000B2000228DF80A300026FCF78FFC2068F7
:1041900027690DF10A0102AA02230097FDF70AFD23
:1041A0006268A189054610460122FCF77FFC002DBC
:1041B0009FD120462068ADF80860002899D060683B
:1041C000002896D0A168002993D0A189002990D019
:1041D000E289002A3FF48DAF48F21402ADF80A20BC
:1041E00000220026FCF762FC206827690DF10A0115
:1041F00002AA022325460097FDF7DCFC6268A1892C
:10420000054610460122FCF751FC002D7FF471AFEA
:104210002068ADF8086000283FF46BAF60680028A4
:104220003FF467AFA16800293FF463AFA18900297B
:104230003FF45FAFE289002A3FF45BAF9022ADF814
:104240000A2000220026FCF731FC206827690DF1C6
:104250000A0102AA022325460097FDF7ABFC62681B
:10426000A189054610460122FCF720FC002D7FF4B1
:1042700040AF20689DF809200028ADF808603FF4A1
:1042800038AF606800283FF434AFA16800293FF4DC
:1042900030AFA18900293FF42CAFE389002B3FF414
:1042A00028AF22F0080210238DF80B2000228DF891
:1042B0000A300026FCF7FAFB206827690DF10A0195
:1042C00002AA022325460097FDF774FC6268A189C3
:1042D000054610460122FCF7E9FB002D7FF409AFEB
:1042E0002068ADF8086000283FF403AF606800283C
:1042F0003FF4FFAEA16800293FF4FBAEA18900297D
:104300003FF4F7AEE289002A3FF4F3AEA822ADF8FD
:104310000A2000220026FCF7C9FB206827690DF15E
:104320000A0102AA022325460097FDF743FC6268B2
:10433000A189054610460122FCF7B8FB002D7FF449
:10434000D8AE20689DF809200028ADF808603FF439
:10435000D0AE606800283FF4CCAEA16800293FF4DD
:10436000C8AEA18900293FF4C4AEE389002B3FF415
:10437000C0AE22F0030228238DF80B2000228DF816
:104380000A300026FCF792FB206827690DF10A012C
:1043900002AA022325460097FDF70CFC6268A1895A
:1043A000054610460122FCF781FB002D7FF4A1AEEB
:1043B0000220FCF757FA2068ADF8086000283FF4A7
:1043C00098AE606800283FF494AEA16800293FF4DD
:1043D00090AEA18900293FF48CAEE289002A3FF417
:1043E00088AEA822ADF80A200022FCF75FFB206807
:1043F00027690DF10A0102AA022325460097FDF75D
:10440000D9FB6268A189054610460122FCF74EFBE4
:10441000002D7FF46EAE9DF80900142140F00302D8
:10442000204600F023F903B0F0BD00002DE9F04173
:1044300082B086460020BEF1000FADF8040051D0D6
:10444000DEF8000000284DD0DEF80400002849D036
:10445000DEF80860002E45D00C46BEF80C1000298E
:1044600040D04FF00A0CCAB3BEF80E50B5B37E264A
:1044700006EA44061D46002B18BF012546EAC5166C
:104480008DF80660002B90460CBF127800228DF844
:104490000720002274461E46FCF708FB27462068CA
:1044A00024690DF1060101AA02230094FDF782FBA5
:1044B0000546002804467868B9894FF0010218BF04
:1044C0000124FCF7F3FA4FEA840C3EB135B99DF8AC
:1044D00005004FF0000C454688F80000604602B029
:1044E000BDE8F0814FF00A0C604602B0BDE8F081F3
:1044F000F0B589B08DF81B10002102230028ADF81B
:1045000018108DF817308DF81610ADF820106DD0FA
:10451000016800296AD04368002B67D081680029B0
:1045200064D08189002961D0C789002F5ED01646EA
:104530009C22ADF822200546184600220027FCF7F1
:10454000B5FA28682C690DF1220108AA022300940B
:10455000FDF730FB6A68A9892C4605461046012202
:10456000FCF7A4FA15B1042009B0F0BD20689DF84D
:104570002130ADF81C70C8B360682246B0B39168B2
:10458000A1B3918991B3D78987B363F07F031C27C7
:10459000154600228DF81E708DF81F30FCF786FA44
:1045A00028682F690DF11E0107AA02230097FDF765
:1045B00001FB6A68A989054610460122FCF776FAD4
:1045C000002DD0D10DF1170006A907220DF1160715
:1045D000CDE9002102900DF11B0220460C210123A0
:1045E0000397FEF709FF28B109B0F0BD0A2009B012
:1045F000F0BD00BF9DF8170002280BD19DF81600F2
:1046000090B140F27000C2F2000009210170052053
:1046100009B0F0BD40F27000C2F200000821017044
:10462000052009B0F0BD00BF002E1CBFBDF818006A
:104630003080002009B0F0BD70B582B016460DF193
:10464000070201230C460546FFF7F0FE10B102B049
:1046500070BD00BF9DF80700214630438DF807006C
:10466000C2B2284600F002F802B070BDB0B582B008
:104670000023ADF8043078B303686BB343685BB3D1
:1046800084684CB3B0F80CC0BCF1000F24D0C489CE
:1046900014B37E2404EA41018DF806108DF807203A
:1046A0000546184661460022FCF700FA28682C6986
:1046B0000DF1060101AA02230094FDF77BFA0446DE
:1046C00000286868A9894FF0010218BF0124FCF78F
:1046D000EDF9A00002B0B0BD0A2002B0B0BD303884
:1046E0000A2801D201207047002070473031323350
:1046F0003435363738394142434445464030580016
:104700003031323334353637383961626364656647
:1047100040307800040000080000000000000002A3
:104720000001000010000000C7470008B74700085C
:1047300011480008A6470008F6470008AB470008E4
:104740005C480008EA470008DE47000852480008B5
:10475000634800080948000809480008094800089B
:1047600009480008094800080948000809480008E5
:104770000948000809480008C24700080000000076
:104780000000000001020304060708090000000001
:1047900001020304010202030405060708090A0BCB
:1047A0000C0D0E0F10104154514100424343004E76
:1047B0004F5F43415244004241445F48414E444CA4
:1047C0004500444F4E45004E4F4E45004455504C19
:1047D0004943415445004241445F415247004154DE
:1047E00051415F4C454E4754480053414B004E41A8
:1047F000434B004F4B00414E5449434F4C4C0043F8
:104800004F4C4C4953494F4E00554E4B4E4F574E0F
:104810000057414B455550004352435F4552524F5C
:1048200052004445564943455F4552524F5200415C
:104830005554485F4552524F520050524F544F43C7
:104840004F4C5F4552524F5200494F5F4552524FB5
:104850005200415451415F424954530053454C4525
:1048600043540048414C540054494D454F55540061
:104870004552524F523D25732044455441494C3DC9
:1048800025732053544147453D257320434D443DF6
:1048900025303258204952513D253032582045525A
:1048A000523D25303258204649464F3D257520421D
:1048B00049543D25752056414C49443D25750D0A06
:1048C000002530325820006D756C7469706C65205D
:1048D000636172647320696E206669656C6400733D
:1048E00065652072656164657220737461747573A7
:1048F00020616E6420646562756720726567697304
:104900007465727300000000284900080000002050
:104910001000000050010008384900081000002075
:10492000F0070000700100080A010A000100000001
:084930001000000000127A00E3
:04000005080000ED02
:00000001FF
